:100000000C942E000C944B000C944B000C94BD01EE
:100010000C944B000C944B000C944B000C949701E7
:100020000C944B000C944B000C944B000C944B0024
:100030000C944B000C944B000C944B000C944B0014
:100040000C944B000C944B000C944B000C944B0004
:100050000C944B000C944B000C944B0011241FBECD
:10006000CFEFD4E0DEBFCDBF11E0A0E0B1E0EEE71E
:10007000F7E002C005900D92A232B107D9F723E054
:10008000A2E2B1E001C01D92AB34B207E1F70E94D9
:10009000E5010C94BD030C940000CCEED0E080E0B0
:1000A00091E00E94DB0298818881809582709D7F1B
:1000B000892B8883F4CF8FE08093E70087EB8093D0
:1000C000E50087E08093E60080EC8093E4000895EB
:1000D0000F931F93CF93DF936630710508F04BC0E9
:1000E00080538A3008F08AE0FB01F595E795E451EA
:1000F000FF4F60FF02C050EF01C05FE0A82FB0E0EB
:10010000AA0FBB1FA85FBE4FCD91DC9161E070E0EC
:10011000A0E0B0E0152F1095012F066604C01496DC
:1001200035966F5F7F4FCE010A2E02C09695879558
:100130000A94E2F7482F4F706130710569F48081AD
:10014000902F982380E1489F90011124842F822BC7
:100150008523892B8083E3CF8081912F982380E1B1
:10016000489F90011124842F822B8523892B808323
:1001700064307105A4F2DF91CF911F910F91089522
:100180008F929F92AF92BF92CF92DF92EF92FF92A7
:100190004B015C0183E088169104A104B10494F141
:1001A000D501C40181709927AA27B078BB2354F4E4
:1001B0000197A109B1098E6F9F6FAF6FBF6F019655
:1001C000A11DB11D892B8A2B8B2BF1F0C12CD12CB9
:1001D00076016894C1F80AC0C501B401A70196016F
:1001E0000E943B03672B682B692B81F08FEFC81AA5
:1001F000D80AE80AF80A8C149D04AE04BF0461F71B
:1002000081E005C081E003C080E001C080E0FF9094
:10021000EF90DF90CF90BF90AF909F908F90089518
:10022000CF92DF92EF92FF920F931F93CF93DF93C2
:1002300000D0CDB7DEB76B017C018A0124E630E047
:1002400040E050E00E943B032AE030E040E050E014
:100250000E943B03B80180E3820F0E9468001A826B
:10026000198289819A81883E934054F489819A81C8
:1002700001969A83898389819A81883E9340B4F359
:100280000F5F1F4FC701B6012AE030E040E050E0A9
:100290000E943B03862FB801805D0E9468000F908A
:1002A0000F90DF91CF911F910F91FF90EF90DF9012
:1002B000CF900895CCEED0E084E091E00E94DB0284
:1002C00098818881809584749B7B892B8883809119
:1002D000220190912301A0912401B0912501BC013C
:1002E000CD016F5F7F4F8F4F9F4F609322017093BF
:1002F0002301809324019093250144E050E00E9463
:100300001001DACFC12CD12C7601C701B6010E94B1
:10031000C000882331F040E050E0C701B6010E94E0
:1003200010018FEFC81AD80AE80AF80AEECF1F9218
:100330000F920FB60F9211242F933F934F935F9319
:100340006F937F938F939F93AF93BF93EF93FF939D
:1003500080E091E00E940A03FF91EF91BF91AF917D
:100360009F918F917F916F915F914F913F912F91CD
:100370000F900FBE0F901F9018951F920F920FB6FF
:100380000F9211242F933F934F935F936F937F931B
:100390008F939F93AF93BF93EF93FF931F9904C0E5
:1003A00084E091E00E940A03FF91EF91BF91AF9129
:1003B0009F918F917F916F915F914F913F912F917D
:1003C0000F900FBE0F901F901895E1E6F0E080E8C7
:1003D000808310820E945B00ECEEF0E080818460FC
:1003E000808364E070E08DE490E00E941F0260E092
:1003F00070E08AE591E00E941F020E948201CF9383
:10040000DF9300D0CDB7DEB79A83898380911E0138
:1004100090911F0106960E947C03892B59F48981D3
:100420009A8190931F0180931E0161E070E006960F
:100430000E949C030F900F90DF91CF910895CF936E
:10044000DF9300D0CDB7DEB7F8942091260130912C
:100450002701232BA1F524E032E030939C01209367
:100460009B0121E732E030930902209308022EED30
:1004700032E030937602209375021092E3021092DC
:10048000E2022D9A2F9A22E020936F002DE0209314
:10049000810022E43FE0309389002093880010928D
:1004A000850010928400EF9AECE6F0E0208120684D
:1004B000208321E030E03093270120932601209112
:1004C0002001309121013A832983232BA9F0E9816E
:1004D000FA814481558150932101409320019183F9
:1004E00080837383628315821482CF0106960E94F3
:1004F0007C030197B1F501C0FFCF7894A0911E0154
:10050000B0911F01ED91FC91119712968D919C91E4
:1005100013970995F894E0911E01F0911F018091C5
:10052000200190912101009729F4F0932101E0939B
:10053000200106C095838483F0932101E09320017C
:100540008091280190912901009751F0FC012481AC
:10055000358130932901209328010E94FF0101C0B9
:10056000FFCFE981FA81369689819A8187599F4F19
:10057000918B808B938B828BE0911E01F0911F01F8
:100580008091280190912901009729F4F093290185
:10059000E093280106C095838483F0932901E093BA
:1005A000280189819A810E94FF0178940F900F9011
:1005B000DF91CF910895FC01F89480819181892B7E
:1005C00029F481E090E09183808322C0A0911E01F4
:1005D000B0911F0182819381009719F4B383A283A4
:1005E00006C015969C938E931497B383A283809133
:1005F000280190912901009751F0FC012481358157
:1006000030932901209328010E94FF0101C0FFCFF0
:1006100078940895FC01F89482819381892B19F4D0
:100620001182108226C0A0911E01B0911F018091FD
:10063000280190912901009729F4B0932901A093F2
:10064000280108C015969C938E931497B0932901A6
:10065000A093280182819381009751F0DC011496C8
:100660002D913C911597338322830E94FF0101C095
:10067000FFCF78940895052E97FB1EF400940E94F6
:10068000520357FD07D00E945A0307FC03D04EF4D3
:100690000C94520350954095309521953F4F4F4F04
:1006A0005F4F089590958095709561957F4F8F4F1E
:1006B0009F4F0895A1E21A2EAA1BBB1BFD010DC07E
:1006C000AA1FBB1FEE1FFF1FA217B307E407F50702
:1006D00020F0A21BB30BE40BF50B661F771F881FDE
:1006E000991F1A9469F760957095809590959B0174
:1006F000AC01BD01CF010895DC012D923D924D92D8
:100700005D926D927D928D929D92AD92BD92CD92B1
:10071000DD92ED92FD920D931D93CD93DD93FF91AC
:10072000EF918DB78D938EB78D938FB78D93ED939A
:10073000FD93882799270994DC01CB01813091052D
:10074000811D2D903D904D905D906D907D908D9090
:100750009D90AD90BD90CD90DD90ED90FD900D9170
:100760001D91CD91DD91ED91FD910D90F894FEBF1D
:0E0770000FBEEDBFED91FD910994F894FFCFFF
:10077E00010000000100000051158020111E111B08
:10078E00500B411B411F1101511F511B00002A012B
:02079E009701C1
:00000001FF
