S01700004763634170706C69636174696F6E312E737265635B
S11300000C942E000C9443000C9443000C94430075
S11300100C9443000C9443000C9443000C94430050
S11300200C9443000C9443000C9443000C94430040
S11300300C9443000C9443000C9443000C94430030
S11300400C9443000C9443000C9443000C94430020
S11300500C9443000C9443000C94430011241FBEE1
S1130060CFEFD4E0DEBFCDBF11E0A0E0B1E0EEE51C
S1130070F4E002C005900D92A631B107D9F70E94B1
S1130080AB010C942D020C9400000F931F93CF939B
S1130090DF936630710508F04BC080538A3008F056
S11300A08AE0FB01F595E795E451FF4F60FF02C03C
S11300B050EF01C05FE0A82FB0E0AA0FBB1FA05013
S11300C0BF4FCD91DC9161E070E0A0E0B0E0152F6E
S11300D01095012F066604C0149635966F5F7F4F06
S11300E0CE010A2E02C0969587950A94E2F7482F0E
S11300F04F706130710569F48081902F982380E1FD
S1130100489F90011124842F822B8523892B80837F
S1130110E3CF8081912F982380E1489F900111249F
S1130120842F822B8523892B808364307105A4F26C
S1130130DF91CF911F910F9108958F929F92AF926B
S1130140BF92CF92DF92EF92FF921F93CF93DF93F0
S11301506B017C01C5E0D0E00F2EFAE08F2E912CCC
S1130160A12CB12CF02DC701B601A50194010E9468
S1130170EC01162F1C141D041E041F042CF4BE01D4
S113018080E3810F0E944500C701B601611B71091C
S113019081099109A50194010E94EC0169017A0188
S11301A0219708F7DF91CF911F91FF90EF90DF9097
S11301B0CF90BF90AF909F908F9008958F929F9211
S11301C0AF92BF92CF92DF92EF92FF924B015C010C
S11301D083E088169104A104B10494F1D501C4010B
S11301E081709927AA27B078BB2354F40197A109F9
S11301F0B1098E6F9F6FAF6FBF6F0196A11DB11DC7
S1130200892B8A2B8B2BF1F0C12CD12C760168948D
S1130210C1F80AC0C501B401A70196010E94EC010E
S1130220672B682B692B81F08FEFC81AD80AE80A6C
S1130230F80A8C149D04AE04BF0461F781E005C084
S113024081E003C080E001C080E0FF90EF90DF9088
S1130250CF90BF90AF909F908F900895CF92DF92F0
S1130260EF92FF926B017C010E94DE00882321F053
S1130270C701B6010E949D00FF90EF90DF90CF90E0
S11302800895CF93DF93CDB7DEB72C970FB6F894CC
S1130290DEBF0FBECDBF4F83588769877A878B87B0
S11302A09C872F81388569857A8540918400509197
S11302B085004217530710F49923A9F09A01275F88
S11302C0324C2331310528F02251310990E081E08C
S11302D001C080E0ACEEB0E0FC91EC91E095E270FE
S11302E0FD7FEF2BEC934617570708F491E03A8310
S11302F029835C834B833A815C81682F792F80E06A
S113030090E02C960FB6F894DEBF0FBECDBFDF9100
S1130310CF9108951F990DC081110CC0ECEEF0E04F
S113032090818081809584749B7B892B808381E07C
S1130330089580E008958FE08093E70087EB809331
S1130340E50087E08093E60080EC8093E40084E09D
S1130350809381000895CF93DF9300D000D000D024
S1130360CDB7DEB7E1E6F0E080E8808310822F9A13
S11303700E949B01ECEEF0E08081846080831D820A
S11303801E828BEC9EE39A8389831C821B8210E07D
S11303900F2EF8EACF2EF1E6DF2EE12CF12CF02D12
S11303A0C701B6010E942E018FEFC81AD80AE80AC5
S11303B0F80A49815A816B817C818D819E810E94DA
S11303C0410129833A834B835C836D837E83812F30
S11303D00E948A01182FE4CF052E97FB1EF4009487
S11303E00E94030257FD07D00E940B0207FC03D0B2
S11303F04EF40C94030250954095309521953F4F4F
S11304004F4F5F4F089590958095709561957F4FFC
S11304108F4F9F4F0895A1E21A2EAA1BBB1BFD010B
S11304200DC0AA1FBB1FEE1FFF1FA217B307E407CF
S1130430F50720F0A21BB30BE40BF50B661F771F27
S1130440881F991F1A9469F7609570958095909507
S11104509B01AC01BD01CF010895F894FFCFCC
S113045E51158020111E111B500B411B411F110100
S109046E511F511B0000A8
S9030000FC
