:100000000C942E000C944B000C944B000C944B0061
:100010000C944B000C944B000C944B000C949501E9
:100020000C944B000C944B000C944B000C944B0024
:100030000C944B000C944B000C944B000C944B0014
:100040000C944B000C944B000C944B000C944B0004
:100050000C944B000C944B000C944B0011241FBECD
:10006000CFEFD4E0DEBFCDBF11E0A0E0B1E0E0EE25
:10007000F6E002C005900D92AA31B107D9F723E04E
:10008000AAE1B1E001C01D92A334B207E1F70E94DA
:10009000CE010C946E030C940000CF93DF9300D03C
:1000A00000D0CDB7DEB70CEE10E00E941B026983D2
:1000B0007A838B839C8389819A81AB81BC810A97E7
:1000C000A105B10594F3F80180819081909592701B
:1000D0008D7F892B80830E942402E7CF8FE080935D
:1000E000E70087EB8093E50087E08093E60080ECF3
:1000F0008093E40008950F931F93CF93DF936630AE
:10010000710508F04BC080538A3008F08AE0FB018B
:10011000F595E795E451FF4F60FF02C050EF01C035
:100120005FE0A82FB0E0AA0FBB1FA050BF4FCD913A
:10013000DC9161E070E0A0E0B0E0152F1095012F98
:10014000066604C0149635966F5F7F4FCE010A2E67
:1001500002C0969587950A94E2F7482F4F70613058
:10016000710569F48081902F982380E1489F900168
:100170001124842F822B8523892B8083E3CF8081D8
:10018000912F982380E1489F90011124842F822B86
:100190008523892B808364307105A4F2DF91CF9190
:1001A0001F910F9108958F929F92AF92BF92CF921D
:1001B000DF92EF92FF924B015C0183E0881691047D
:1001C000A104B10494F1D501C40181709927AA2733
:1001D000B078BB2354F40197A109B1098E6F9F6FCA
:1001E000AF6FBF6F0196A11DB11D892B8A2B8B2B81
:1001F000F1F0C12CD12C76016894C1F80AC0C50178
:10020000B401A70196010E94EC02672B682B692BB1
:1002100081F08FEFC81AD80AE80AF80A8C149D04F6
:10022000AE04BF0461F781E005C081E003C080E057
:1002300001C080E0FF90EF90DF90CF90BF90AF9033
:100240009F908F900895CF92DF92EF92FF920F933D
:100250001F93CF93DF9300D0CDB7DEB76B017C0146
:100260008A0124E630E040E050E00E94EC022AE0FF
:1002700030E040E050E00E94EC02B80180E3820FE1
:100280000E947B001A82198289819A81883E93405C
:1002900054F489819A8101969A83898389819A810C
:1002A000883E9340B4F30F5F1F4FC701B6012AE0A9
:1002B00030E040E050E00E94EC02862FB801805D03
:1002C0000E947B000F900F90DF91CF911F910F91B3
:1002D000FF90EF90DF90CF900895ECEEF0E08081FA
:1002E0008460808380E0C12CD12C7601C0E00CEECC
:1002F00010E0D1E001C08C2F1F99FDCF8111FCCF00
:10030000F80180819081909594748B7B892B8083F8
:10031000FFEFCF1ADF0AEF0AFF0A44E050E0C701FF
:10032000B6010E9423018D2FE7CF1F920F920FB6C7
:100330000F9211242F933F934F935F936F937F936B
:100340008F939F93AF93BF93EF93FF930E94BE024F
:10035000FF91EF91BF91AF919F918F917F916F919D
:100360005F914F913F912F910F900FBE0F901F9073
:100370001895C12CD12C7601C701B6010E94D3007B
:10038000882331F040E050E0C701B6010E9423010C
:100390008FEFC81AD80AE80AF80AEECFE1E6F0E0D3
:1003A00080E8808310822F9A0E946E0060E070E0E7
:1003B0008DE490E00E942D0260E070E08DE691E017
:1003C0000E942D020E94B901DC0115961C921E921A
:1003D0001497DB01ED91FC911197309721F48D93E7
:1003E0009C930895F9012481358121153105D1F7B8
:1003F000958384830895CF93DF9300D0CDB7DEB784
:100400009A838983809116019091170106960E9424
:100410002D03892B59F489819A8190931701809338
:10042000160161E070E006960E944D030F900F9058
:10043000DF91CF91089560911A0170911B01809115
:100440001C0190911D01089510921A0110921B0138
:1004500010921C0110921D010895CF93DF9300D0DC
:10046000CDB7DEB7F89420911E0130911F01232BE8
:1004700069F52CEF31E0309394012093930129E644
:1004800032E0309301022093000226ED32E03093F7
:100490006E0220936D021092DB021092DA022D9A06
:1004A00022E020936F002DE02093810026E831E0C8
:1004B0003093890020938800109285001092840068
:1004C00021E030E030931F0120931E01209118019C
:1004D000309119013A832983232BA9F0E981FA810C
:1004E0004481558150931901409318019183808371
:1004F0007383628315821482CF0106960E942D03B6
:10050000019729F501C0FFCF7894E0911601F09191
:1005100017010190F081E02D0995F89468E171E0F0
:1005200080911601909117010E94E40180912001B1
:1005300090912101009751F0FC0124813581309385
:100540002101209320010E94FB0101C0FFCFE9811E
:10055000FA81369689819A8187599F4F918B808B3A
:10056000938B828B60E271E089819A810E94E40121
:1005700078940F900F90DF91CF910895F894809127
:100580001A0190911B01A0911C01B0911D010196CF
:10059000A11DB11D80931A0190931B01A0931C0112
:1005A000B0931D0160E271E08091160190911701F6
:1005B0000E94E4018091200190912101009759F05F
:1005C000FC012481358130932101209320010E9478
:1005D000FB0178940895FFCF052E97FB1EF400943D
:1005E0000E94030357FD07D00E940B0307FC03D0B2
:1005F0004EF40C94030350954095309521953F4F50
:100600004F4F5F4F089590958095709561957F4FFE
:100610008F4F9F4F0895A1E21A2EAA1BBB1BFD010D
:100620000DC0AA1FBB1FEE1FFF1FA217B307E407D1
:10063000F50720F0A21BB30BE40BF50B661F771F29
:10064000881F991F1A9469F7609570958095909509
:100650009B01AC01BD01CF010895DC012D923D92BB
:100660004D925D926D927D928D929D92AD92BD92D2
:10067000CD92DD92ED92FD920D931D93CD93DD937E
:10068000FF91EF918DB78D938EB78D938FB78D932B
:10069000ED93FD93882799270994DC01CB018130E4
:1006A0009105811D2D903D904D905D906D907D90B8
:1006B0008D909D90AD90BD90CD90DD90ED90FD9092
:1006C0000D911D91CD91DD91ED91FD910D90F894DD
:1006D000FEBF0FBEEDBFED91FD910994F894FFCFE1
:1006E00051158020111E111B500B411B411F110180
:0A06F000511F511B000022018F0171
:00000001FF
