:100000000C942E000C9469060C94D8060C944707A7
:100010000C94B6070C9425080C944B000C94900E8D
:100020000C944B000C943E0E0C9494080C94030911
:100030000C9472090C94E1090C94500A0C94BF0AB8
:100040000C942E0B0C949D0B0C940C0C0C947B0CB0
:100050000C94EA0C0C94590D0C94C80D11241FBE7D
:10006000CFEFD4E0DEBFCDBF11E0A0E0B1E0E2E52C
:10007000F4E202C005900D92A034B107D9F724E054
:10008000A0E4B1E001C01D92A93AB207E1F70E94D5
:1000900080030C9427120C940000E1E6F0E080E865
:1000A000808310828FE08093E70087EB8093E500E8
:1000B00087E08093E60090EC9093E40085B1806D3A
:1000C00085B98EB18C608EB98FE284B980E58DB927
:1000D0008CE080936B0080ED80936C009DBB089555
:1000E0006630710508F044C080538A3008F08AE019
:1000F000FB01F595E795E451FF4F60FD02C05FE01D
:1001000001C050EFA82FB0E0AA0FBB1FA050BF4FF7
:100110006D917C9120E030E028C0C901880F991FC3
:10012000880F991FDB0102C0B695A7958A95E2F763
:100130004A2F4F702115310539F48081952F909504
:1001400096668923808305C08081952F90958923A9
:100150008083B0E14B9FC00111249081842B8523C3
:10016000892B808335962F5F3F4F24303105ACF2C9
:1001700008950F931F93CF93DF93D62FFC01048133
:1001800010E089E2689F812D112482958F70262FBF
:10019000F4E68F9F20191124CDEC2C9F812D112482
:1001A000869586958695B801805D0E947000B8019D
:1001B0006F5F7F4FDC9FC12D1124C695C695C695F4
:1001C000CC0F8C2F880F880FC80F8D2F8C1B805D54
:1001D0000E947000DF91CF911F910F910895FC0153
:1001E0008481811107C0ECEEF0E0908182E08927E4
:1001F00080830895843031F4EDEEF0E0908180E466
:10020000892780830895FC01118A108A0895CF926E
:10021000DF92EF92FF920F931F93CF93DF93EC0146
:1002200040E050E06DE470E0888599850E943910C7
:100230000C811D81C12CD12C0F2EFCEBEF2EF3E095
:10024000FF2EF02D20E030E0A90160E070E0CB014E
:100250000E94300F0E811F8120E030E0A90160E094
:1002600070E0CB010E94300F08851985CC24C3941F
:10027000D12C0F2EF9EBEF2EF0E0FF2EF02D20E029
:1002800030E0A90160E070E0CB010E94300F0A85E8
:100290001B8520E030E0A90160E070E0CB010E9406
:1002A000300F08851985C12CD12C0F2EFFEEEF2EB3
:1002B000F0E0FF2EF02D20E030E0A90160E070E0DA
:1002C000CB010E94300FDF91CF911F910F91FF90D2
:1002D000EF90DF90CF9008953F924F925F926F9290
:1002E0007F928F929F92AF92BF92CF92DF92EF92C6
:1002F000FF920F931F93CF93DF93EC01AC84BD84E7
:10030000BB24F5013296EE0FFF1FE80FF91F40E006
:1003100050E066E874E0808191810E9439104C01C0
:10032000382E1C9970C088899989892B09F06BC077
:1003300081E090E0998B888BF5013296EE0FFF1FDC
:10034000EC0FFD1F40E050E06CE874E0808191818B
:100350000E943910882049F1350182E0680E711C35
:10036000660C771C6C0E7D1EA40155276FE874E0A7
:10037000F301808191810E94391040E050E069E8EA
:1003800074E0F301808191810E943910F501349667
:10039000EE0FFF1FEC0FFD1F40E050E069EB70E037
:1003A000808191810E9439101CC03C017724F501A5
:1003B0003296EE0FFF1FEC0FFD1FA30169E874E0FA
:1003C000808191810E943910F5013496EE0FFF1F54
:1003D000EC0FFD1FA30169EB70E0808191810E9409
:1003E0003910C12CD12C0F2EF3E0EF2EF1E0FF2EAF
:1003F000F02D8E0120E030E0A9016AE678E180E08E
:1004000090E00E94300F1E9961C088899989892BDC
:1004100009F05CC081E090E0998B888BF2E6F315DF
:1004200008F442C0350182E0680E711C660C771C2E
:100430006C0E7D1EF30100811181C12CD12C0F2E79
:10044000F2E3EF2EF4E0FF2EF02D20E030E0A901E2
:1004500062E17AE780E090E00E94300F9F878E870C
:1004600024015524FFEF4F1A5F0AF3010081118127
:1004700062010F2EF9E8EF2EF4E0FF2EF02D20E0C0
:1004800030E0A90160E070E0CB010E94300FF5017F
:100490003496EE0FFF1FEC0FFD1FA20169EB70E019
:1004A000808191810E943910C12CD12C0F2EF3E054
:1004B000EF2EF1E0FF2EF02D8E0120E030E0A901BB
:1004C0006AE678E180E090E00E94300F1F995FC0FB
:1004D00088899989892B09F05AC081E090E0998B2D
:1004E000888B332009F441C09924F1E08F1A9108D8
:1004F000350182E0680E711C660C771C6C0E7D1E47
:10050000F3010081118164010F2EF9E8EF2EF4E070
:10051000FF2EF02D20E030E0A90160E070E0CB017B
:100520000E94300FF5013496EE0FFF1FEC0FFD1FF8
:10053000A40169EB70E0808191810E943910F30180
:1005400000811181C12CD12C0F2EF2E3EF2EF4E0AB
:10055000FF2EF02D20E030E0A90162E17AE780E093
:1005600090E00E94300F9F878E87C12CD12C0F2ED8
:10057000F3E0EF2EF1E0FF2EF02D8E0120E030E0D1
:10058000A9016AE678E180E090E00E94300F1F9BAD
:100590000AC01E9B08C08E859F85009721F00E948F
:1005A00013111F861E86DF91CF911F910F91FF902F
:1005B000EF90DF90CF90BF90AF909F908F907F9003
:1005C0006F905F904F903F900895CF92DF92EF929F
:1005D000FF920F931F93CF93DF93EC01629943C077
:1005E00088899989892B61F581E090E0998B888BC6
:1005F0008C859D85181619061CF5FC013496EE0FA6
:10060000FF1FEC0FFD1F40E050E06FEE70E08081B7
:1006100091810E9439108C859D859C012150310962
:100620003D872C87FC013396EE0FFF1FEC0FFD1F5B
:1006300040E050E06FEE70E0808191810E943910BF
:10064000C12CD12C0F2EF3E0EF2EF1E0FF2EF02D78
:100650008E0120E030E0A9016AE678E180E090E0D8
:100660000E94300F44C0639942C088899989892BC0
:10067000F1F581E090E0998B888B8C859D8518162B
:1006800019061CF1FC013496EE0FFF1FEC0FFD1F45
:1006900040E050E06FEE70E0808191810E9439105F
:1006A0008C859D859C012F5F3F4F3D872C87FC01EA
:1006B0003596EE0FFF1FEC0FFD1F40E050E06FEE90
:1006C00070E0808191810E943910C12CD12C0F2EB5
:1006D000F3E0EF2EF1E0FF2EF02D8E0120E030E070
:1006E000A9016AE678E180E090E00E94300FDF9196
:1006F000CF911F910F91FF90EF90DF90CF900895D1
:10070000E0E2F1E082E591E090878783948B838B30
:1007100026E131E0328721878BE191E0968B858B52
:10072000A0E4B1E01596FC93EE9314974CE251E0EF
:1007300017965C934E93169719963C932E931897A1
:100740001B969C938E931A9742E06CE671E0CD0164
:100750000E94591141E065EE72E080E491E00E9450
:10076000591140E050E067E071E080E491E00E94C0
:10077000741180E090E00895BF92CF92DF92EF92E3
:10078000FF920F931F93CF93DF93EC01BD80BB20AB
:10079000D9F1CC800F811885D12C0F2EF2E9EF2EE4
:1007A000F4E0FF2EF02D20E030E0A90160E070E0E1
:1007B000CB010E94300F2B2D30E0220F331F032E70
:1007C000000C440B550B60E472E48FE090E00E9453
:1007D0008B11ADE7B0E00E94AA1120EA3FE040E0B3
:1007E00050E00E948B11CA01B901C12CD12C0F2EEF
:1007F000FCEBEF2EF3E0FF2EF02D8E0120E030E039
:10080000A9010E94300F24C0CC800F811885D12C03
:100810000F2EFDE9EF2EF4E0FF2EF02D20E030E06A
:10082000A90160E070E0CB010E94300FC12CD12CF7
:100830000F2EFCEBEF2EF3E0FF2EF02D8E0120E0CB
:1008400030E0A90169E07DE380E090E00E94300F94
:10085000DF91CF911F910F91FF90EF90DF90CF909C
:10086000BF900895CF92DF92EF92FF920F931F9364
:10087000CF93DF93EC011E9920C04D814336E8F4FD
:100880004F5F4D8350E069EB70E089859A850E9447
:1008900039101E9912C0C12CD12C0F2EF2E3EF2E6D
:1008A000F4E0FF2EF02D8E0120E030E0A90165E399
:1008B0007CE080E090E00E94300F1F991EC04D81C7
:1008C0004423D9F041504D8350E069EB70E08985B5
:1008D0009A850E943910C12CD12C0F2EF2E3EF2EF5
:1008E000F4E0FF2EF02D8E0120E030E0A90165E359
:1008F0007CE080E090E00E94300FDF91CF911F916B
:100900000F91FF90EF90DF90CF900895FC018581CB
:100910000895FC0165830895FC0186810895FC011A
:10092000668308952EB181E090E002C0880F991F80
:100930006A95E2F782278EB908952EB181E090E0A2
:1009400002C0880F991F6A95E2F7809582238EB9BD
:100950000895DB01ED91FC91A0E0B0E004C0DF015F
:100960000190F081E02D309719F0E817F907B9F7F9
:10097000309789F0109739F0808191818D939C9305
:1009800081E090E0089580819181FB0191838083D3
:1009900081E090E0089580E090E00895CF93DF93A8
:1009A00000D000D0CDB7DEB780E090E018C0AC0139
:1009B0004F5F5F4F9A0122953295307F3227207F1B
:1009C0003227275C3D4F82959295907F9827807FB4
:1009D0009827FC01E75CFD4F31832083CA018E30EC
:1009E00091052CF310921A031092190380E090E005
:1009F00015C0AC014F5F5F4F6DE1649F9001659F33
:100A0000300D11242C573E4F689FF001699FF00D67
:100A10001124EC57FE4F31832083CA0183309105A6
:100A200044F31092DC011092DB011A82198232C069
:100A30002DE149815A81249FC001259F900D1124E9
:100A4000FC01E657FE4FFC83EB83CF010E94E611C9
:100A500020E649815A81249FC001259F900D1124D1
:100A60008B579C4FEB81FC81918B808B938B828B7E
:100A70008BEB90E1968B858B8DE1849FF001859FB8
:100A8000F00D1124EC57FE4F158214824F5F5F4F1B
:100A90005A83498329813A81243031054CF2ECE1B3
:100AA000F2E0118210821582148213821282E1E632
:100AB000F0E080E88083108210928500109284001C
:100AC00084E08093810081E080936F000F900F900D
:100AD0000F900F90DF91CF910895CF93DF9300D0C7
:100AE000CDB7DEB79A83898380913801909139011F
:100AF00006960E94E611892B59F489819A81909378
:100B000039018093380161E070E006960E94061278
:100B10000F900F90DF91CF9108950F931F93CF9374
:100B2000DF93DC01CB01EB01E881F981C0E0D0E08B
:100B300004C0EF010190F081E02D309779F006813B
:100B400017812085318516964D915D916D917C912F
:100B5000199740175107620773075CF71196FC93CA
:100B6000EE93209721F4FC01B183A08302C0B983E6
:100B7000A883DF91CF911F910F9108950F931F9339
:100B8000CF93DF93DC01CB01EB01E881F981C0E079
:100B9000D0E004C0EF010190F081E02D309779F0B2
:100BA000028113812481358112964D915D916D9161
:100BB0007C91159740175107620773075CF71196F0
:100BC000FC93EE93209721F4FC01B183A08302C033
:100BD000B983A883DF91CF911F910F910895CF938F
:100BE000DF9300D0CDB7DEB7FC01208131813A839D
:100BF000298329813A81232B51F0E981FA812081CF
:100C00003181FC013183208389819A810BC08FEF70
:100C10008093EC008093ED008093EE0081E083BF31
:100C20008895FCCF0F900F90DF91CF910895FB0135
:100C300020813181FC0131832083FB0191838083FA
:100C40000895FB0120813181FC0131832083FB0168
:100C5000918380830895DC01ED91FC9111972081AF
:100C600031812D933C93CF010895CF93DF93E09191
:100C70003A01F0913B01C281D381E0915E01F09194
:100C80005F01309719F180913C0190913D01892BD2
:100C9000E9F0209769F086819781A085B1854E8122
:100CA0005F8168857985841B950BA60BB70B72F461
:100CB0008CE391E00E942B066AE371E00E9421061A
:100CC00080913A0190913B010E946D05DF91CF9197
:100CD00008951F920F920FB60F9211240F931F9336
:100CE0002F933F934F935F936F937F938F939F9334
:100CF000AF93BF93EF93FF9380915601909157016B
:100D0000AC01092E000C660B770B9A011127002706
:100D1000409184005091850060E070E0402B512BA1
:100D2000622B732B409358015093590160935A01E1
:100D300070935B01B09B1AC00196092E000CAA0BA0
:100D4000BB0BBC01552744278091840090918500FE
:100D5000A0E0B0E0842B952BA62BB72B80935801F5
:100D600090935901A0935A01B0935B01E091F8016F
:100D7000F091F901309739F060E070E08091600106
:100D80009091610109950E943506FF91EF91BF9105
:100D9000AF919F918F917F916F915F914F913F9113
:100DA0002F911F910F910F900FBE0F901F901895CC
:100DB0001F920F920FB60F9211240F931F932F9330
:100DC0003F934F935F936F937F938F939F93AF93D3
:100DD000BF93EF93FF938091560190915701AC011F
:100DE000092E000C660B770B9A0111270027409102
:100DF00084005091850060E070E0402B512B622B05
:100E0000732B409358015093590160935A0170938A
:100E10005B01B09B1AC00196092E000CAA0BBB0BFC
:100E2000BC01552744278091840090918500A0E063
:100E3000B0E0842B952BA62BB72B80935801909371
:100E40005901A0935A01B0935B01E091FA01F0912E
:100E5000FB01309739F061E070E080916201909180
:100E6000630109950E943506FF91EF91BF91AF9103
:100E70009F918F917F916F915F914F913F912F91B2
:100E80001F910F910F900FBE0F901F9018951F92FA
:100E90000F920FB60F9211240F931F932F933F932E
:100EA0004F935F936F937F938F939F93AF93BF9372
:100EB000EF93FF938091560190915701AC01092E59
:100EC000000C660B770B9A011127002740918400D4
:100ED0005091850060E070E0402B512B622B732B0A
:100EE000409358015093590160935A0170935B01EC
:100EF000B09B1AC00196092E000CAA0BBB0BBC01BB
:100F0000552744278091840090918500A0E0B0E0AF
:100F1000842B952BA62BB72B8093580190935901C6
:100F2000A0935A01B0935B01E091FC01F091FD01A7
:100F3000309739F062E070E0809164019091650132
:100F400009950E943506FF91EF91BF91AF919F9156
:100F50008F917F916F915F914F913F912F911F9151
:100F60000F910F900FBE0F901F9018951F920F9228
:100F70000FB60F9211240F931F932F933F934F930C
:100F80005F936F937F938F939F93AF93BF93EF93F1
:100F9000FF938091560190915701AC01092E000CEE
:100FA000660B770B9A01112700274091840050911E
:100FB000850060E070E0402B512B622B732B409337
:100FC00058015093590160935A0170935B01B09B93
:100FD0001AC00196092E000CAA0BBB0BBC015527A9
:100FE00044278091840090918500A0E0B0E0842B9C
:100FF000952BA62BB72B8093580190935901A09362
:101000005A01B0935B01E091FE01F091FF0130972E
:1010100039F063E070E08091660190916701099575
:101020000E943506FF91EF91BF91AF919F918F91F3
:101030007F916F915F914F913F912F911F910F91F0
:101040000F900FBE0F901F9018951F920F920FB622
:101050000F9211240F931F932F933F934F935F93FE
:101060006F937F938F939F93AF93BF93EF93FF9370
:101070008091560190915701AC01092E000C660B2E
:10108000770B9A0111270027409184005091850029
:1010900060E070E0402B512B622B732B4093580182
:1010A0005093590160935A0170935B01B09B1AC031
:1010B0000196092E000CAA0BBB0BBC015527442737
:1010C0008091840090918500A0E0B0E0842B952B66
:1010D000A62BB72B8093580190935901A0935A01E6
:1010E000B0935B01E0910002F0910102309739F07A
:1010F00064E070E0809168019091690109950E9417
:101100003506FF91EF91BF91AF919F918F917F91A4
:101110006F915F914F913F912F911F910F910F9080
:101120000FBE0F901F9018951F920F920FB60F923F
:1011300011240F931F932F933F934F935F936F93BC
:101140007F938F939F93AF93BF93EF93FF93809180
:10115000560190915701AC01092E000C660B770BDC
:101160009A0111270027409184005091850060E08A
:1011700070E0402B512B622B732B409358015093FE
:10118000590160935A0170935B01B09B1AC001969C
:10119000092E000CAA0BBB0BBC01552744278091DC
:1011A000840090918500A0E0B0E0842B952BA62BC5
:1011B000B72B8093580190935901A0935A01B09393
:1011C0005B01E0910202F0910302309739F065E093
:1011D00070E080916A0190916B0109950E9435063B
:1011E000FF91EF91BF91AF919F918F917F916F91FF
:1011F0005F914F913F912F911F910F910F900FBED3
:101200000F901F9018951F920F920FB60F921124F6
:101210000F931F932F933F934F935F936F937F93FE
:101220008F939F93AF93BF93EF93FF93809156015A
:1012300090915701AC01092E000C660B770B9A01B7
:1012400011270027409184005091850060E070E0F4
:10125000402B512B622B732B409358015093590113
:1012600060935A0170935B01B09B1AC00196092EDE
:10127000000CAA0BBB0BBC015527442780918400AE
:1012800090918500A0E0B0E0842B952BA62BB72B86
:101290008093580190935901A0935A01B0935B0138
:1012A000E0910402F0910502309739F066E070E0B9
:1012B00080916C0190916D0109950E943506FF9116
:1012C000EF91BF91AF919F918F917F916F915F91BE
:1012D0004F913F912F911F910F910F900FBE0F9043
:1012E0001F9018951F920F920FB60F9211240F9313
:1012F0001F932F933F934F935F936F937F938F939E
:101300009F93AF93BF93EF93FF938091560190917A
:101310005701AC01092E000C660B770B9A011127BF
:101320000027409184005091850060E070E0402BE0
:10133000512B622B732B40935801509359016093AA
:101340005A0170935B01B09B1AC00196092E000CE4
:10135000AA0BBB0BBC0155274427809184009091B8
:101360008500A0E0B0E0842B952BA62BB72B8093B3
:10137000580190935901A0935A01B0935B01E091F9
:101380000602F0910702309739F067E070E0809133
:101390006E0190916F0109950E943506FF91EF91C2
:1013A000BF91AF919F918F917F916F915F914F917D
:1013B0003F912F911F910F910F900FBE0F901F9093
:1013C00018951F920F920FB60F9211240F931F932F
:1013D0002F933F934F935F936F937F938F939F933D
:1013E000AF93BF93EF93FF93809156019091570174
:1013F000AC01092E000C660B770B9A011127002710
:10140000409184005091850060E070E0402B512BAA
:10141000622B732B409358015093590160935A01EA
:1014200070935B01B09B1AC00196092E000CAA0BA9
:10143000BB0BBC0155274427809184009091850007
:10144000A0E0B0E0842B952BA62BB72B80935801FE
:1014500090935901A0935A01B0935B01E091080267
:10146000F0910902309739F068E070E080917001E6
:101470009091710109950E943506FF91EF91BF91FE
:10148000AF919F918F917F916F915F914F913F911C
:101490002F911F910F910F900FBE0F901F901895D5
:1014A0001F920F920FB60F9211240F931F932F9339
:1014B0003F934F935F936F937F938F939F93AF93DC
:1014C000BF93EF93FF938091560190915701AC0128
:1014D000092E000C660B770B9A011127002740910B
:1014E00084005091850060E070E0402B512B622B0E
:1014F000732B409358015093590160935A01709394
:101500005B01B09B1AC00196092E000CAA0BBB0B05
:10151000BC01552744278091840090918500A0E06C
:10152000B0E0842B952BA62BB72B8093580190937A
:101530005901A0935A01B0935B01E0910A02F09126
:101540000B02309739F069E070E080917201909160
:10155000730109950E943506FF91EF91BF91AF91FC
:101560009F918F917F916F915F914F913F912F91BB
:101570001F910F910F900FBE0F901F9018951F9203
:101580000F920FB60F9211240F931F932F933F9337
:101590004F935F936F937F938F939F93AF93BF937B
:1015A000EF93FF938091560190915701AC01092E62
:1015B000000C660B770B9A011127002740918400DD
:1015C0005091850060E070E0402B512B622B732B13
:1015D000409358015093590160935A0170935B01F5
:1015E000B09B1AC00196092E000CAA0BBB0BBC01C4
:1015F000552744278091840090918500A0E0B0E0B9
:10160000842B952BA62BB72B8093580190935901CF
:10161000A0935A01B0935B01E0910C02F0910D028E
:10162000309739F06AE070E0809174019091750113
:1016300009950E943506FF91EF91BF91AF919F915F
:101640008F917F916F915F914F913F912F911F915A
:101650000F910F900FBE0F901F9018951F920F9231
:101660000FB60F9211240F931F932F933F934F9315
:101670005F936F937F938F939F93AF93BF93EF93FA
:10168000FF938091560190915701AC01092E000CF7
:10169000660B770B9A011127002740918400509127
:1016A000850060E070E0402B512B622B732B409340
:1016B00058015093590160935A0170935B01B09B9C
:1016C0001AC00196092E000CAA0BBB0BBC015527B2
:1016D00044278091840090918500A0E0B0E0842BA5
:1016E000952BA62BB72B8093580190935901A0936B
:1016F0005A01B0935B01E0910E02F0910F02309716
:1017000039F06BE070E08091760190917701099556
:101710000E943506FF91EF91BF91AF919F918F91FC
:101720007F916F915F914F913F912F911F910F91F9
:101730000F900FBE0F901F9018951F920F920FB62B
:101740000F9211240F931F932F933F934F935F9307
:101750006F937F938F939F93AF93BF93EF93FF9379
:101760008091560190915701AC01092E000C660B37
:10177000770B9A0111270027409184005091850032
:1017800060E070E0402B512B622B732B409358018B
:101790005093590160935A0170935B01B09B1AC03A
:1017A0000196092E000CAA0BBB0BBC015527442740
:1017B0008091840090918500A0E0B0E0842B952B6F
:1017C000A62BB72B8093580190935901A0935A01EF
:1017D000B0935B01E0911002F0911102309739F063
:1017E0006CE070E0809178019091790109950E94F8
:1017F0003506FF91EF91BF91AF919F918F917F91AE
:101800006F915F914F913F912F911F910F910F9089
:101810000FBE0F901F9018951F920F920FB60F9248
:1018200011240F931F932F933F934F935F936F93C5
:101830007F938F939F93AF93BF93EF93FF93809189
:10184000560190915701AC01092E000C660B770BE5
:101850009A0111270027409184005091850060E093
:1018600070E0402B512B622B732B40935801509307
:10187000590160935A0170935B01B09B1AC00196A5
:10188000092E000CAA0BBB0BBC01552744278091E5
:10189000840090918500A0E0B0E0842B952BA62BCE
:1018A000B72B8093580190935901A0935A01B0939C
:1018B0005B01E0911202F0911302309739F06DE074
:1018C00070E080917A0190917B0109950E94350624
:1018D000FF91EF91BF91AF919F918F917F916F9108
:1018E0005F914F913F912F911F910F910F900FBEDC
:1018F0000F901F9018951F920F920FB60F92112400
:101900000F931F932F933F934F935F936F937F9307
:101910008F939F93AF93BF93EF93FF938091560163
:1019200090915701AC01092E000C660B770B9A01C0
:1019300011270027409184005091850060E070E0FD
:10194000402B512B622B732B40935801509359011C
:1019500060935A0170935B01B09B1AC00196092EE7
:10196000000CAA0BBB0BBC015527442780918400B7
:1019700090918500A0E0B0E0842B952BA62BB72B8F
:101980008093580190935901A0935A01B0935B0141
:10199000E0911402F0911502309739F06EE070E09A
:1019A00080917C0190917D0109950E943506FF91FF
:1019B000EF91BF91AF919F918F917F916F915F91C7
:1019C0004F913F912F911F910F910F900FBE0F904C
:1019D0001F9018951F920F920FB60F9211240F931C
:1019E0001F932F933F934F935F936F937F938F93A7
:1019F0009F93AF93BF93EF93FF9380915601909184
:101A00005701AC01092E000C660B770B9A011127C8
:101A10000027409184005091850060E070E0402BE9
:101A2000512B622B732B40935801509359016093B3
:101A30005A0170935B01B09B1AC00196092E000CED
:101A4000AA0BBB0BBC0155274427809184009091C1
:101A50008500A0E0B0E0842B952BA62BB72B8093BC
:101A6000580190935901A0935A01B0935B01E09102
:101A70001602F0911702309739F06FE070E0809114
:101A80007E0190917F0109950E943506FF91EF91AB
:101A9000BF91AF919F918F917F916F915F914F9186
:101AA0003F912F911F910F910F900FBE0F901F909C
:101AB00018951F920F920FB60F9211240F931F9338
:101AC0002F933F934F935F936F937F938F939F9346
:101AD000AF93BF93EF93FF9380915601909157017D
:101AE000AC01092E000C660B770B9A011127002719
:101AF000409184005091850060E070E0402B512BB4
:101B0000622B732B409358015093590160935A01F3
:101B100070935B01B09B1AC00196092E000CAA0BB2
:101B2000BB0BBC0155274427809184009091850010
:101B3000A0E0B0E0842B952BA62BB72B8093580107
:101B400090935901A0935A01B0935B01E091180260
:101B5000F0911902309739F060E170E080918001D6
:101B60009091810109950E943506FF91EF91BF91F7
:101B7000AF919F918F917F916F915F914F913F9125
:101B80002F911F910F910F900FBE0F901F901895DE
:101B90001F920F920FB60F9211240F931F932F9342
:101BA0003F934F935F936F937F938F939F93AF93E5
:101BB000BF93EF93FF938091560190915701AC0131
:101BC000092E000C660B770B9A0111270027409114
:101BD00084005091850060E070E0402B512B622B17
:101BE000732B409358015093590160935A0170939D
:101BF0005B01B09B1AC00196092E000CAA0BBB0B0F
:101C0000BC01552744278091840090918500A0E075
:101C1000B0E0842B952BA62BB72B80935801909383
:101C20005901A0935A01B0935B01E0911A02F0911F
:101C30001B02309739F061E170E080918201909150
:101C4000830109950E943506FF91EF91BF91AF91F5
:101C50009F918F917F916F915F914F913F912F91C4
:101C60001F910F910F900FBE0F901F9018950E941B
:101C70003506789481E083BF8895FCCF1F920F9240
:101C80000FB60F9211242F933F934F935F936F934F
:101C90007F938F939F93EF93FF9380915601909141
:101CA000570101969093570180935601E0915C0192
:101CB000F0915D01309701F142815381648175811A
:101CC00086179707C9F4CA012091840030918500D6
:101CD000421B530B4130510529F4809184009091AF
:101CE000850001969093890080938800EFE6F0E0EC
:101CF00080818260808305C0EFE6F0E080818D7F87
:101D00008083FF91EF919F918F917F916F915F9170
:101D10004F913F912F910F900FBE0F901F901895EC
:101D20001F920F920FB60F921124CF92DF92EF9273
:101D3000FF922F933F934F935F936F937F938F9374
:101D40009F93AF93BF93EF93FF9380915601909130
:101D500057016C01092E000CEE08FF087601DD2406
:101D6000CC24409184005091850060E070E0C42A4A
:101D7000D52AE62AF72AB09B1EC06C012FEFC21AA3
:101D8000D20A0D2C000CEE08FF08D60199278827EF
:101D9000C0908400D0908500E12CF12CC82AD92A6B
:101DA000EA2AFB2A08C08CE591E00E94EF056EE567
:101DB00071E00E948D05E0915C01F0915D0130972A
:101DC00069F082819381A481B5818C199D09AE0946
:101DD000BF09181619061A061B062CF7309721F1B1
:101DE00082819381A481B581209156013091570160
:101DF0002A173B07C9F49C0140918400509185004B
:101E0000841B950B019731F420918400309185005B
:101E10002F5F3F4F3093890020938800EFE6F0E07A
:101E200080818260808305C0EFE6F0E080818D7F55
:101E300080830E943506FF91EF91BF91AF919F91F2
:101E40008F917F916F915F914F913F912F91FF9073
:101E5000EF90DF90CF900F900FBE0F901F901895CE
:101E60003F924F925F926F927F928F929F92AF922A
:101E7000BF92CF92DF92EF92FF920F931F93CF9377
:101E8000DF932B013C0149015A018FB78078382E2E
:101E9000F8948EE391E00E94EF05EC011B870A871E
:101EA000FD86EC86DF86CE86332061F0E091380136
:101EB000F09139010280F381E02D82819381A48128
:101EC000B58108C08091580190915901A0915A01A3
:101ED000B0915B01480E591E6A1E7B1E4A825B82CE
:101EE0006C827D82181419041A041B0444F00F2E0E
:101EF00088248A94982CA82CFFE7BF2EF02D840C00
:101F0000951CA61CB71C8E829F82A886B98620913C
:101F1000560130915701C901032E000CAA0BBB0BCF
:101F2000DC0199278827409184005091850060E06A
:101F300070E0842B952BA62BB72BB09B13C0C90147
:101F40000196092E000CAA0BBB0BDC0199278827F0
:101F5000409184005091850060E070E0842B952BC7
:101F6000A62BB72B481A590A6A0A7B0A14141504BF
:101F700016041704ACF56CE571E0CE010E94BE05B5
:101F8000E0915C01F0915D01309721F182819381B4
:101F9000A481B58120915601309157012A173B0742
:101FA000C9F49C014091840050918500841B950BDD
:101FB000019731F420918400309185002F5F3F4FCD
:101FC0003093890020938800EFE6F0E08081826002
:101FD000808339C0EFE6F0E080818D7F808333C05D
:101FE0006EE571E0CE010E948D05332061F1809194
:101FF0003C0190913D01892B31F1E0915E01F0911E
:102000005F0186819781A085B185E0913A01F091C9
:102010003B010280F381E02D468157816085718507
:10202000841B950BA60BB70B72F48CE391E00E9416
:102030002B066AE371E00E94210680913A0190919B
:102040003B010E946D05332009F07894CE01DF91A9
:10205000CF911F910F91FF90EF90DF90CF90BF90A5
:10206000AF909F908F907F906F905F904F903F9038
:102070000895CF92DF92EF92FF920F931F93CF9329
:10208000DF93EC017B016A011FB71078F894A881F7
:10209000B981109719F435C0A081B1811496ED91E2
:1020A000FC9115973097C1F7209138013091390193
:1020B000A217B30711F0111107C0112309F44AC088
:1020C00078948FEF9FEF4EC08A819B81009719F023
:1020D000FC01158214823B832A83F901D583C483D2
:1020E000CD010E946D05E0913801F09139018281A6
:1020F0009381892B31F4112381F1789480E090E071
:1021000031C08091380190913901998388831123DE
:1021100029F08A819B81019709F07894B601CE015C
:10212000F7010995F82E092F8FB7F89419821882B4
:102130008A819B818230910538F01B821A82FC01D2
:10214000158214820E946D05112351F078948F2D11
:10215000902F08C08FEF9FEF05C080E090E002C095
:102160008F2D902FDF91CF911F910F91FF90EF90C6
:10217000DF90CF90089500913801109139018EE5DC
:1021800091E00E94EF05EC01F8019383828378943B
:102190006C857D854E855F858A859B850E9439107B
:1021A0008FB7F8946EE371E0CE010E941706E091BC
:1021B0003A01F0913B010190F081E02DC281D38181
:1021C000E0915E01F0915F013097A1F0209799F2C4
:1021D00086819781A085B1854E815F8168857985EB
:1021E000841B950BA60BB70B181619061A061B06AF
:1021F0000CF0C1CF8AE391E00E942B066CE371E002
:102200000E942106A0913A01B0913B0102C0A08139
:10221000B1811496ED91FC9115973097C1F7CD01DE
:102220000E946D05A8CF1F93CF93DF93EC011FB7DA
:102230001078F8946CE571E00E94A904892B39F4B8
:102240006EE571E0CE010E94A904892B31F06EE3A6
:1022500071E0CE010E94170625C0E0913A01F0918D
:102260003B011EC08091380190913901E817F907B0
:10227000A1F082819381C817D90779F4248135812F
:102280008A859B852817390741F4138212826EE3F1
:1022900071E0CE010E94170605C00190F081E02D8B
:1022A000309701F7112309F07894DF91CF911F91B6
:1022B0000895FC014231B8F49FB79078F89450E04B
:1022C000440F551FDA01A05ABE4FED93FC93DA017B
:1022D000A850BE4F6D937C9321E030E0338322837E
:1022E000992309F0789408958C017B016A018FB7D6
:1022F000F8940E94CE047894E114F10441F020E0B7
:1023000030E0A90160E070E0CB010E94300F8FB790
:10231000F8940E94370E052E97FB1EF400940E943D
:10232000A21157FD07D00E94B51107FC03D04EF44F
:102330000C94A21150954095309521953F4F4F4FE9
:102340005F4F089590958095709561957F4F8F4F61
:102350009F4F08950E94D711A59F900DB49F900D97
:10236000A49F800D911D11240895A1E21A2EAA1B8D
:10237000BB1BFD010DC0AA1FBB1FEE1FFF1FA21735
:10238000B307E407F50720F0A21BB30BE40BF50B32
:10239000661F771F881F991F1A9469F760957095BB
:1023A000809590959B01AC01BD01CF010895A29F3E
:1023B000B001B39FC001A39F700D811D1124911D19
:1023C000B29F700D811D1124911D0895DC012D9285
:1023D0003D924D925D926D927D928D929D92AD92C5
:1023E000BD92CD92DD92ED92FD920D931D93CD9312
:1023F000DD93FF91EF918DB78D938EB78D938FB74E
:102400008D93ED93FD93882799270994DC01CB01E7
:1024100081309105811D2D903D904D905D906D9086
:102420007D908D909D90AD90BD90CD90DD90ED9084
:10243000FD900D911D91CD91DD91ED91FD910D904E
:10244000F894FEBF0FBEEDBFED91FD910994F89495
:02245000FFCFBC
:1024520051158020111E111B500B411B411F1101F0
:10246200511F511B0000000000000000000000048A
:102472000000000004010000000000010000000054
:1024820006010000000000011C021C028401390246
:00000001FF
