S01700004763634170706C69636174696F6E312E737265635B
S11300000C942E000C948B040C94F7040C9463054C
S11300100C94CF050C943B060C944B000C94230DCC
S11300200C944B000C94D10C0C94A7060C9413075D
S11300300C947F070C94EB070C9457080C94C3089A
S11300400C942F090C949B090C94070A0C94730AC2
S11300500C94DF0A0C944B0B0C94B70B11241FBEA9
S1130060CFEFD4E0DEBFCDBF11E0A0E0B1E0E6EE1B
S1130070F1E202C005900D92AE32B107D9F724E047
S1130080AEE2B1E001C01D92A33BB207E1F70E94CA
S113009062010C94F1100C9400000F931F93CF9302
S11300A0DF936630710508F04BC080538A3008F046
S11300B08AE0FB01F595E795E451FF4F60FF02C02C
S11300C050EF01C05FE0A82FB0E0AA0FBB1FA05003
S11300D0BF4FCD91DC9161E070E0A0E0B0E0152F5E
S11300E01095012F066604C0149635966F5F7F4FF6
S11300F0CE010A2E02C0969587950A94E2F7482FFE
S11301004F706130710569F48081902F982380E1EC
S1130110489F90011124842F822B8523892B80836F
S1130120E3CF8081912F982380E1489F900111248F
S1130130842F822B8523892B808364307105A4F25C
S1130140DF91CF911F910F9108950F931F93CF9338
S1130150DF93D62FFC01048110E089E2689F812D92
S1130160112482958F70262FF4E68F9F2019112475
S1130170CDEC2C9F812D1124869586958695B8010A
S1130180805D0E944D00B8016F5F7F4FDC9FC12DE1
S11301901124C695C695C695CC0F8C2F880F880F51
S11301A0C80F8D2F8C1B805D0E944D00DF91CF9175
S11301B01F910F910895FC018481811108C0ECEE18
S11301C0F0E080818D7F660F682B60830895843012
S11301D051F4EDEEF0E080818F7B90E4699FB001F3
S11301E01124682B60830895AF92BF92CF92DF925F
S11301F0EF92FF920F931F93CF935C01C091C600BF
S1130200C0FF14C0FC0104811581CC24C394D12CFB
S11302100F2EFEE7EF2EF2E0FF2EF02D20E030E06F
S1130220A90160E070E0CB010E94D80DC1FF14C0A9
S1130230F50104811581CC24C394D12C0F2EF2E452
S1130240EF2EF3E0FF2EF02D20E030E0A90160E076
S113025070E0CB010E94D80DC2FF14C0F5010481E7
S11302601581CC24CA94DC2C0F2EFEE7EF2EF2E08D
S1130270FF2EF02D20E030E0A90160E070E0CB011A
S11302800E94D80DC3FF14C0F50104811581CC244C
S1130290CA94DC2C0F2EF2E4EF2EF3E0FF2EF02DA7
S11302A020E030E0A90160E070E0CB010E94D80DAD
S11302B0CF911F910F91FF90EF90DF90CF90BF905F
S11302C0AF900895CF93DF9363E370E08CE591E002
S11302D00E948310E4E4F1E0F0934301E0934201CF
S11302E026E131E0318B208B8BE191E0938B828B83
S11302F080E291E0958B848BAEE2B1E015963C935D
S11303002E931497C6E3D1E09D838C83D387C28751
S1130310B187A08748E064EF70E08EE391E00E942B
S1130320351040E050E060E672E084E491E00E9421
S11303304F10DF91CF910895CF92DF92EF92FF9209
S11303400F931F93CF93DF93EC011F861E860885BE
S11303501985C12CD12C0F2EFBE6EF2EF0E1FF2ED8
S1130360F02D20E030E0A90160E070E0CB010E94B4
S1130370D80D0A851B8520E030E0A90160E070E01B
S1130380CB010E94D80D40E050E06BED70E088890D
S113039099890E94E90E40E050E06BED70E08C8991
S11303A09D890E94E90EDF91CF911F910F91FF90DB
S11303B0EF90DF90CF900895CF92DF92EF92FF926B
S11303C00F931F93CF93DF93EC018B018C859D8555
S11303D0861B970B9D878C87AC01992324F44427B3
S11303E05527481B590B65EA70E08A899B890E944E
S11303F0E90E8C859D85892B09F059C00F3F8FEF3D
S1130400180749F10130110509F051C00A851B850F
S1130410C12CD12C0F2EFBE6EF2EF0E1FF2EF02D98
S113042020E030E0A90160E070E0CB010E94D80D2B
S11304308E819F8118161906D4F508851985CC2458
S1130440C394D12C20E030E0A90160E070E0CB013E
S11304500E94D80D2CC008851985C12CD12C0F2ED3
S1130460FBE6EF2EF0E1FF2EF02D20E030E0A901B5
S113047060E070E0CB010E94D80D8C819D8118163C
S113048019066CF40A851B85CC24C394D12C20E076
S113049030E0A90160E070E0CB010E94D80D8E85A8
S11304A09F85009721F00E94E40F1F861E86DF912E
S11304B0CF911F910F91FF90EF90DF90CF9008950F
S11304C0CF93DF93EC0140E050E065EA70E0888967
S11304D099890E94E90E40E050E065EA70E08A895B
S11304E09B890E94E90E40E050E065EA70E08C8947
S11304F09D890E94E90EDF91CF910895AF92BF923A
S1130500CF92DF92EF92FF920F931F93CF93DF93DB
S11305101F92CDB7DEB75C016F3F8FEF780709F408
S113052057C06130710509F0A1C0F50144815581BE
S11305304F5F5F4F5583448365EA70E084899589F2
S11305400E94E90E40E050E06FE770E1F50180851C
S113055091850E94E90E21E0892B09F420E029838A
S1130560F50184859585892B09F080C089818111E5
S11305707DC086859785009711F00E94E40FC12CF9
S1130580D12C0F2EFCE9EF2EF1E0FF2EF02D85018A
S113059020E030E0A9016EE077E287E090E00E947D
S11305A0D80DF5019787868702851385CC24C394DB
S11305B0D12C0F2EFBE6EF2EF0E1FF2EF02D20E0E4
S11305C030E0A90160E070E0CB010E94D80D4EC07C
S11305D0F501468157814F5F5F4F5783468365EA34
S11305E070E0808991890E94E90E40E050E06FE755
S11305F070E1F501828593850E94E90E21E0892B43
S113060009F420E02983F50184859585892B71F50A
S113061086859785009711F00E94E40FC12CD12C98
S11306200F2EFCE9EF2EF1E0FF2EF02D850120E0E6
S113063030E0A9016EE077E287E090E00E94D80DF7
S1130640F5019787868700851185CC24C394D12C26
S11306500F2EFBE6EF2EF0E1FF2EF02D20E030E030
S1130660A90160E070E0CB010E94D80D0F90DF91EA
S1130670CF911F910F91FF90EF90DF90CF90BF909B
S1130680AF900895CF92DF92EF92FF920F931F9352
S1130690CF93DF93EC016B018C859D85860F971FAB
S11306A09D878C87AC01992324F444275527481B44
S11306B0590B65EA70E08A899B890E94E90E8FEFE5
S11306C0C816D80689F081E0C816D104C9F44C8153
S11306D05D81415051095D834C8365EA70E08C89EA
S11306E09D890E94E90E0CC04E815F8141505109E1
S11306F05F834E8365EA70E0888999890E94E90ED8
S11307000F2EFCEDEF2EF1E0FF2EF02D8E0120E0F8
S113071030E0A9016AE572E682E090E00E94D80D1B
S1130720DF91CF911F910F91FF90EF90DF90CF90C9
S11307300895FB01A081B1811097F1F0A817B907C2
S113074011F411C0DF01ED91FC9111973097B9F0CC
S11307508E179F07B9F716C0808191818D939C9362
S113076081E090E00895FD0180819181FB019183F6
S1130770808381E090E0089580E090E0089580E037
S113078090E00895109741F7EFCFCF93DF9300D017
S113079000D0CDB7DEB783E592E023E333E0FC017C
S11307A0709791838083409682179307C1F71092C4
S11307B0240310922303EEE8F1E08BEA91E09183A5
S11307C0808388EC91E0968F858FA5EEB1E0B3AF7E
S11307D0A2AF1D921C92FA83E983EFE8F3E0FC8355
S11307E0EB8389819A8106960E94B0108B819C814B
S11307F0E981FA81978B868B918F808F86E79FE0C2
S1130800948F838F158214827D96FA83E983EB811A
S1130810FC81E05AFF4FFC83EB8389819A818250EB
S11308209240F9F6E6E2F2E0118210821582148217
S113083013821282E1E6F0E080E880831082109255
S113084085001092840084E08093810081E080938D
S11308506F000F900F900F900F90DF91CF9108953C
S1130860CF93DF9300D0CDB7DEB79A83898380918D
S113087025019091260106960E94B010892B59F407
S113088089819A81909326018093250161E070E02B
S113089006960E94D0100F900F90DF91CF9108958B
S11308A00F931F93CF93DF93E0916801F091690157
S11308B0309761F18091290190912A01009731F1DB
S11308C0C0912701D0912801AA81BB81109779F0AA
S11308D0468157816085718516960D911D912D91E4
S11308E03C911997401B510B620B730B7AF4FC017A
S11308F02081318130932A0120932901D183C0833F
S113090090932801809327010E943004DF91CF91B6
S11309101F910F9108951F920F920FB60F921124F9
S11309202F933F934F935F936F937F938F939F93F3
S1130930AF93BF93EF93FF932091600130916101D6
S11309404091840050918500C901032E000CAA0B2C
S1130950BB0BDC019927882760E070E0842B952B82
S1130960A62BB72B8093620190936301A09364013B
S1130970B0936501B09B1BC04091840050918500E9
S1130980C9010196092E000CAA0BBB0BDC019927A7
S1130990882760E070E0842B952BA62BB72B8093DF
S11309A0620190936301A0936401B0936501E091A7
S11309B00202F0910302309739F060E070E0809118
S11309C06A0190916B0109950E945004FF91EF9187
S11309D0BF91AF919F918F917F916F915F914F9153
S11309E03F912F910F900FBE0F901F9018951F925B
S11309F00F920FB60F9211242F933F934F935F934F
S1130A006F937F938F939F93AF93BF93EF93FF93D2
S1130A1020916001309161014091840050918500E2
S1130A20C901032E000CAA0BBB0BDC0199278827F4
S1130A3060E070E0842B952BA62BB72B809362018A
S1130A4090936301A0936401B0936501B09B1BC0B4
S1130A504091840050918500C9010196092E000C33
S1130A60AA0BBB0BDC019927882760E070E0842B7C
S1130A70952BA62BB72B8093620190936301A093CF
S1130A806401B0936501E0910402F091050230978E
S1130A9039F061E070E080916C0190916D010995ED
S1130AA00E945004FF91EF91BF91AF919F918F915C
S1130AB07F916F915F914F913F912F910F900FBE56
S1130AC00F901F9018951F920F920FB60F9211243A
S1130AD02F933F934F935F936F937F938F939F9342
S1130AE0AF93BF93EF93FF93209160013091610125
S1130AF04091840050918500C901032E000CAA0B7B
S1130B00BB0BDC019927882760E070E0842B952BD0
S1130B10A62BB72B8093620190936301A093640189
S1130B20B0936501B09B1BC0409184005091850037
S1130B30C9010196092E000CAA0BBB0BDC019927F5
S1130B40882760E070E0842B952BA62BB72B80932D
S1130B50620190936301A0936401B0936501E091F5
S1130B600602F0910702309739F062E070E080915C
S1130B706E0190916F0109950E945004FF91EF91CD
S1130B80BF91AF919F918F917F916F915F914F91A1
S1130B903F912F910F900FBE0F901F9018951F92A9
S1130BA00F920FB60F9211242F933F934F935F939D
S1130BB06F937F938F939F93AF93BF93EF93FF9321
S1130BC02091600130916101409184005091850031
S1130BD0C901032E000CAA0BBB0BDC019927882743
S1130BE060E070E0842B952BA62BB72B80936201D9
S1130BF090936301A0936401B0936501B09B1BC003
S1130C004091840050918500C9010196092E000C81
S1130C10AA0BBB0BDC019927882760E070E0842BCA
S1130C20952BA62BB72B8093620190936301A0931D
S1130C306401B0936501E0910802F09109023097D4
S1130C4039F063E070E08091700190917101099531
S1130C500E945004FF91EF91BF91AF919F918F91AA
S1130C607F916F915F914F913F912F910F900FBEA4
S1130C700F901F9018951F920F920FB60F92112488
S1130C802F933F934F935F936F937F938F939F9390
S1130C90AF93BF93EF93FF93209160013091610173
S1130CA04091840050918500C901032E000CAA0BC9
S1130CB0BB0BDC019927882760E070E0842B952B1F
S1130CC0A62BB72B8093620190936301A0936401D8
S1130CD0B0936501B09B1BC0409184005091850086
S1130CE0C9010196092E000CAA0BBB0BDC01992744
S1130CF0882760E070E0842B952BA62BB72B80937C
S1130D00620190936301A0936401B0936501E09143
S1130D100A02F0910B02309739F064E070E08091A0
S1130D2072019091730109950E945004FF91EF9113
S1130D30BF91AF919F918F917F916F915F914F91EF
S1130D403F912F910F900FBE0F901F9018951F92F7
S1130D500F920FB60F9211242F933F934F935F93EB
S1130D606F937F938F939F93AF93BF93EF93FF936F
S1130D70209160013091610140918400509185007F
S1130D80C901032E000CAA0BBB0BDC019927882791
S1130D9060E070E0842B952BA62BB72B8093620127
S1130DA090936301A0936401B0936501B09B1BC051
S1130DB04091840050918500C9010196092E000CD0
S1130DC0AA0BBB0BDC019927882760E070E0842B19
S1130DD0952BA62BB72B8093620190936301A0936C
S1130DE06401B0936501E0910C02F0910D0230971B
S1130DF039F065E070E08091740190917501099576
S1130E000E945004FF91EF91BF91AF919F918F91F8
S1130E107F916F915F914F913F912F910F900FBEF2
S1130E200F901F9018951F920F920FB60F921124D6
S1130E302F933F934F935F936F937F938F939F93DE
S1130E40AF93BF93EF93FF932091600130916101C1
S1130E504091840050918500C901032E000CAA0B17
S1130E60BB0BDC019927882760E070E0842B952B6D
S1130E70A62BB72B8093620190936301A093640126
S1130E80B0936501B09B1BC04091840050918500D4
S1130E90C9010196092E000CAA0BBB0BDC01992792
S1130EA0882760E070E0842B952BA62BB72B8093CA
S1130EB0620190936301A0936401B0936501E09192
S1130EC00E02F0910F02309739F066E070E08091E5
S1130ED076019091770109950E945004FF91EF915A
S1130EE0BF91AF919F918F917F916F915F914F913E
S1130EF03F912F910F900FBE0F901F9018951F9246
S1130F000F920FB60F9211242F933F934F935F9339
S1130F106F937F938F939F93AF93BF93EF93FF93BD
S1130F2020916001309161014091840050918500CD
S1130F30C901032E000CAA0BBB0BDC0199278827DF
S1130F4060E070E0842B952BA62BB72B8093620175
S1130F5090936301A0936401B0936501B09B1BC09F
S1130F604091840050918500C9010196092E000C1E
S1130F70AA0BBB0BDC019927882760E070E0842B67
S1130F80952BA62BB72B8093620190936301A093BA
S1130F906401B0936501E0911002F0911102309761
S1130FA039F067E070E080917801909179010995BA
S1130FB00E945004FF91EF91BF91AF919F918F9147
S1130FC07F916F915F914F913F912F910F900FBE41
S1130FD00F901F9018951F920F920FB60F92112425
S1130FE02F933F934F935F936F937F938F939F932D
S1130FF0AF93BF93EF93FF93209160013091610110
S11310004091840050918500C901032E000CAA0B65
S1131010BB0BDC019927882760E070E0842B952BBB
S1131020A62BB72B8093620190936301A093640174
S1131030B0936501B09B1BC0409184005091850022
S1131040C9010196092E000CAA0BBB0BDC019927E0
S1131050882760E070E0842B952BA62BB72B809318
S1131060620190936301A0936401B0936501E091E0
S11310701202F0911302309739F068E070E0809129
S11310807A0190917B0109950E945004FF91EF91A0
S1131090BF91AF919F918F917F916F915F914F918C
S11310A03F912F910F900FBE0F901F9018951F9294
S11310B00F920FB60F9211242F933F934F935F9388
S11310C06F937F938F939F93AF93BF93EF93FF930C
S11310D0209160013091610140918400509185001C
S11310E0C901032E000CAA0BBB0BDC01992788272E
S11310F060E070E0842B952BA62BB72B80936201C4
S113110090936301A0936401B0936501B09B1BC0ED
S11311104091840050918500C9010196092E000C6C
S1131120AA0BBB0BDC019927882760E070E0842BB5
S1131130952BA62BB72B8093620190936301A09308
S11311406401B0936501E0911402F09115023097A7
S113115039F069E070E080917C0190917D010995FE
S11311600E945004FF91EF91BF91AF919F918F9195
S11311707F916F915F914F913F912F910F900FBE8F
S11311800F901F9018951F920F920FB60F92112473
S11311902F933F934F935F936F937F938F939F937B
S11311A0AF93BF93EF93FF9320916001309161015E
S11311B04091840050918500C901032E000CAA0BB4
S11311C0BB0BDC019927882760E070E0842B952B0A
S11311D0A62BB72B8093620190936301A0936401C3
S11311E0B0936501B09B1BC0409184005091850071
S11311F0C9010196092E000CAA0BBB0BDC0199272F
S1131200882760E070E0842B952BA62BB72B809366
S1131210620190936301A0936401B0936501E0912E
S11312201602F0911702309739F06AE070E080916D
S11312307E0190917F0109950E945004FF91EF91E6
S1131240BF91AF919F918F917F916F915F914F91DA
S11312503F912F910F900FBE0F901F9018951F92E2
S11312600F920FB60F9211242F933F934F935F93D6
S11312706F937F938F939F93AF93BF93EF93FF935A
S1131280209160013091610140918400509185006A
S1131290C901032E000CAA0BBB0BDC01992788277C
S11312A060E070E0842B952BA62BB72B8093620112
S11312B090936301A0936401B0936501B09B1BC03C
S11312C04091840050918500C9010196092E000CBB
S11312D0AA0BBB0BDC019927882760E070E0842B04
S11312E0952BA62BB72B8093620190936301A09357
S11312F06401B0936501E0911802F09119023097EE
S113130039F06BE070E08091800190918101099542
S11313100E945004FF91EF91BF91AF919F918F91E3
S11313207F916F915F914F913F912F910F900FBEDD
S11313300F901F9018951F920F920FB60F921124C1
S11313402F933F934F935F936F937F938F939F93C9
S1131350AF93BF93EF93FF932091600130916101AC
S11313604091840050918500C901032E000CAA0B02
S1131370BB0BDC019927882760E070E0842B952B58
S1131380A62BB72B8093620190936301A093640111
S1131390B0936501B09B1BC04091840050918500BF
S11313A0C9010196092E000CAA0BBB0BDC0199277D
S11313B0882760E070E0842B952BA62BB72B8093B5
S11313C0620190936301A0936401B0936501E0917D
S11313D01A02F0911B02309739F06CE070E08091B2
S11313E082019091830109950E945004FF91EF912D
S11313F0BF91AF919F918F917F916F915F914F9129
S11314003F912F910F900FBE0F901F9018951F9230
S11314100F920FB60F9211242F933F934F935F9324
S11314206F937F938F939F93AF93BF93EF93FF93A8
S113143020916001309161014091840050918500B8
S1131440C901032E000CAA0BBB0BDC0199278827CA
S113145060E070E0842B952BA62BB72B8093620160
S113146090936301A0936401B0936501B09B1BC08A
S11314704091840050918500C9010196092E000C09
S1131480AA0BBB0BDC019927882760E070E0842B52
S1131490952BA62BB72B8093620190936301A093A5
S11314A06401B0936501E0911C02F0911D02309734
S11314B039F06DE070E08091840190918501099587
S11314C00E945004FF91EF91BF91AF919F918F9132
S11314D07F916F915F914F913F912F910F900FBE2C
S11314E00F901F9018951F920F920FB60F92112410
S11314F02F933F934F935F936F937F938F939F9318
S1131500AF93BF93EF93FF932091600130916101FA
S11315104091840050918500C901032E000CAA0B50
S1131520BB0BDC019927882760E070E0842B952BA6
S1131530A62BB72B8093620190936301A09364015F
S1131540B0936501B09B1BC040918400509185000D
S1131550C9010196092E000CAA0BBB0BDC019927CB
S1131560882760E070E0842B952BA62BB72B809303
S1131570620190936301A0936401B0936501E091CB
S11315801E02F0911F02309739F06EE070E08091F6
S113159086019091870109950E945004FF91EF9173
S11315A0BF91AF919F918F917F916F915F914F9177
S11315B03F912F910F900FBE0F901F9018951F927F
S11315C00F920FB60F9211242F933F934F935F9373
S11315D06F937F938F939F93AF93BF93EF93FF93F7
S11315E02091600130916101409184005091850007
S11315F0C901032E000CAA0BBB0BDC019927882719
S113160060E070E0842B952BA62BB72B80936201AE
S113161090936301A0936401B0936501B09B1BC0D8
S11316204091840050918500C9010196092E000C57
S1131630AA0BBB0BDC019927882760E070E0842BA0
S1131640952BA62BB72B8093620190936301A093F3
S11316506401B0936501E0912002F091210230977A
S113166039F06FE070E080918801909189010995CB
S11316700E945004FF91EF91BF91AF919F918F9180
S11316807F916F915F914F913F912F910F900FBE7A
S11316900F901F9018951F920F920FB60F9211245E
S11316A02F933F934F935F936F937F938F939F9366
S11316B0AF93BF93EF93FF93209160013091610149
S11316C04091840050918500C901032E000CAA0B9F
S11316D0BB0BDC019927882760E070E0842B952BF5
S11316E0A62BB72B8093620190936301A0936401AE
S11316F0B0936501B09B1BC040918400509185005C
S1131700C9010196092E000CAA0BBB0BDC01992719
S1131710882760E070E0842B952BA62BB72B809351
S1131720620190936301A0936401B0936501E09119
S11317302202F0912302309739F060E170E0809149
S11317408A0190918B0109950E945004FF91EF91B9
S1131750BF91AF919F918F917F916F915F914F91C5
S11317603F912F910F900FBE0F901F9018951F92CD
S11317700F920FB60F9211242F933F934F935F93C1
S11317806F937F938F939F93AF93BF93EF93FF9345
S11317902091600130916101409184005091850055
S11317A0C901032E000CAA0BBB0BDC019927882767
S11317B060E070E0842B952BA62BB72B80936201FD
S11317C090936301A0936401B0936501B09B1BC027
S11317D04091840050918500C9010196092E000CA6
S11317E0AA0BBB0BDC019927882760E070E0842BEF
S11317F0952BA62BB72B8093620190936301A09342
S11318006401B0936501E0912402F09125023097C0
S113181039F061E170E080918C0190918D0109951E
S11318200E945004FF91EF91BF91AF919F918F91CE
S11318307F916F915F914F913F912F910F900FBEC8
S11318400F901F901895EF92FF920F931F93CF93D1
S1131850DF937B01EB01A881B981109761F1FC0151
S1131860068117812085318516964D915D916D9184
S11318707C911997041715072607370714F41BC022
S1131880DF01ED91FC911197309749F04681578122
S11318906085718504171507260737078CF7EC0157
S11318A0F983E883109721F4F7019183808307C0BB
S11318B08D939C9304C0EC01B983A883F5CFDF9189
S11318C0CF911F910F91FF90EF900895EF92FF92A7
S11318D00F931F93CF93DF937B01EB01A881B98111
S11318E0109761F1FC0102811381248135811296E4
S11318F04D915D916D917C911597041715072607FD
S1131900370714F41BC0DF01ED91FC911197309758
S113191049F04281538164817581041715072607B4
S113192037078CF7EC01F983E883109721F4F7016A
S11319309183808307C08D939C9304C0EC01B98389
S1131940A883F5CFDF91CF911F910F91FF90EF9076
S11319500895CF93DF9300D0CDB7DEB7FC0120818B
S113196031813A83298329813A81232B51F0E981FA
S1131970FA8120813181FC013183208389819A811C
S11319800BC08FEF8093EC008093ED008093EE000A
S113199081E083BF8895FDCF0F900F90DF91CF91A9
S11319A008951F920F920FB60F9211242F933F9315
S11319B04F935F936F937F938F939F93EF93FF93D3
S11319C080916001909161010196909361018093EF
S11319D06001E0916601F0916701309701F1428165
S11319E053816481758186179707C9F4CA012091D0
S11319F0840030918500421B530B4130510529F47A
S1131A008091840090918500019690938900809341
S1131A108800EFE6F0E080818260808305C0EFE615
S1131A20F0E080818D7F8083FF91EF919F918F9172
S1131A307F916F915F914F913F912F910F900FBEC6
S1131A400F901F9018951F920F920FB60F921124AA
S1131A50CF92DF92EF92FF922F933F934F935F9336
S1131A606F937F938F939F93AF93BF93EF93FF9362
S1131A70C0906001D0906101209184003091850074
S1131A80B0990FC00D2C000CEE08FF08D601992761
S1131A9088276901E12CF12CC82AD92AEA2AFB2AD1
S1131AA015C020918400309185008FEFC81AD80AA0
S1131AB00D2C000CEE08FF08D60199278827690130
S1131AC0E12CF12CC82AD92AEA2AFB2AE0916601E2
S1131AD0F0916701309709F442C082819381A48117
S1131AE0B5818C199D09AE09BF09181619061A0685
S1131AF01B06ECF186E691E00E94A90C68E671E011
S1131B000E94230CE0916601F0916701309739F14E
S1131B1082819381A481B5818C199D09AE09BF0985
S1131B20181619061A061B062CF721C09C014091B1
S1131B30840050918500841B950B019731F420910A
S1131B408400309185002F5F3F4F309389002093AC
S1131B508800EFE6F0E080818260808305C0EFE6D4
S1131B60F0E080818D7F80830E9450040CC08281CC
S1131B709381A481B58120916001309161012A177C
S1131B803B0769F7D3CFFF91EF91BF91AF919F913D
S1131B908F917F916F915F914F913F912F91FF9022
S1131BA0EF90DF90CF900F900FBE0F901F9018957D
S1131BB03F924F925F926F927F928F929F92AF92D9
S1131BC0BF92CF92DF92EF92FF920F931F93CF9326
S1131BD0DF932B013C0149015A018FB78078382EDD
S1131BE0F8948BE291E00E94A90CEC011B870A8710
S1131BF0FD86EC86DF86CE86332061F0E0912501F8
S1131C00F09126010280F381E02D82819381A481E9
S1131C10B58108C08091620190916301A091640133
S1131C20B0916501480E591E6A1E7B1E4A825B8272
S1131C306C827D82181419041A041B0444F00F2EBC
S1131C4088248A94982CA82CFFE7BF2EF02D840CAE
S1131C50951CA61CB71C8E829F82A886B98680918B
S1131C606001909161014091840050918500B09988
S1131C700EC0092E000CAA0BBB0BDC019927882788
S1131C8060E070E0842B952BA62BB72B13C020911A
S1131C908400309185000196092E000CAA0BBB0B21
S1131CA0DC0199278827A90160E070E0842B952B3B
S1131CB0A62BB72B481A590A6A0A7B0A141415046E
S1131CC016041704ACF566E671E0CE010E94660CBA
S1131CD0E0916601F0916701309721F1828193814F
S1131CE0A481B58120916001309161012A173B07DD
S1131CF0C9F49C014091840050918500841B950B8C
S1131D00019731F420918400309185002F5F3F4F7B
S1131D103093890020938800EFE6F0E080818260B0
S1131D20808341C0EFE6F0E080818D7F80833BC0FB
S1131D3068E671E0CE010E94230C3320B9F1809152
S1131D40290190912A01009781F1E0912701F091F6
S1131D502801209168013091690102811381D90120
S1131D6016964D915D916D917C911997D8011696B7
S1131D700D911D912D913C911997401B510B620BB4
S1131D80730B9AF4DC012D913C91119730932A0145
S1131D9020932901ED93FC939093280180932701CC
S1131DA00E94300402C0332009F07894CE01DF9100
S1131DB0CF911F910F91FF90EF90DF90CF90BF9044
S1131DC0AF909F908F907F906F905F904F903F90D7
S1131DD00895CF92DF92EF92FF920F931F93CF93C8
S1131DE0DF93EC017B016A011FB71078F894A88196
S1131DF0B981109761F11496ED91FC911597309784
S1131E0041F0A081B1811496ED91FC911597309722
S1131E10C1F720912501309126012A173B0721F0B3
S1131E20112309F43DC007C0112309F43CC0789480
S1131E308FEF9FEF52C08A819B810097D1F1FC0103
S1131E401582148236C0789480E090E046C0809178
S1131E5025019091260199838883112329F08A8191
S1131E609B81019709F07894B601CE01F701099599
S1131E70F82E092F8FB7F894198218828A819B81D2
S1131E808230910538F01B821A82FC01158214827B
S1131E900E943004112351F078948F2D902F1DC08F
S1131EA08FEF9FEF1AC08FEF9FEF17C08F2D902FEA
S1131EB014C03B832A83F901D583C483CD010E94D6
S1131EC03004E0912501F091260182819381892BD0
S1131ED009F4B9CFF983E883C2CFDF91CF911F9181
S1131EE00F91FF90EF90DF90CF900895009125011E
S1131EF01091260188E691E00E94A90CEC01D8011A
S1131F0013969C938E93129778944E855F856C8577
S1131F107D858A859B850E94E90E8FB7F894809110
S1131F202B0190912C0199838883D0932C01C09329
S1131F302B01E0912701F091280100811181E80132
S1131F402A813B81A0916801B09169011097C1F089
S1131F502115310559F216968D919D910D90BC91E4
S1131F60A02DE9014E815F8168857985841B950BDD
S1131F70A60BB70B181619061A061B060CF0B6CFDB
S1131F8010932801009327018091290190912A013F
S1131F9091838083F0932A01E0932901A091270182
S1131FA0B09128011496ED91FC911597309741F06A
S1131FB0A081B1811496ED91FC9115973097C1F7EA
S1131FC0CD010E94300492CF1F93CF93DF93EC0195
S1131FD01FB71078F89466E671E00E949903892B84
S1131FE039F468E671E0CE010E949903892B59F017
S1131FF080912B0190912C0199838883D0932C019B
S1132000C0932B012BC0E0912701F0912801309758
S113201029F120912501309126012E173F07C9F09F
S113202082819381C817D907A1F4448155818A8597
S11320309B854817590769F41382128280912B01FA
S113204090912C0199838883D0932C01C0932B0108
S113205005C00190F081E02D3097F9F6112309F0C5
S11320607894DF91CF911F9108954231B8F42FB73E
S1132070F89450E0440F551FFA01E659FE4F91833E
S11320808083FA01EE5FFD4F7183608341E050E08D
S1132090FC015383428322230CF4789408958C0129
S11320A07B016A018FB7F8940E94C5037894E11408
S11320B0F10441F020E030E0A90160E070E0CB01E0
S11320C00E94D80D8FB7F8940E945004789481E050
S11320D083BF8895FDCF0F931F93CF93DF93EC01BC
S11320E08B01AB016BED70E08C819D810E94E90E48
S11320F01F830E83DF91CF911F910F910895FC01EF
S1132100868197810895E1E6F0E080E8808310827B
S11321108FE08093E70087EB8093E50087E080936E
S1132120E60090EC9093E40085B1806D85B98EB1A2
S11321308C608EB98FE284B980E58DB98CE0809390
S11321406B0080ED80936C009DBB7093C500609321
S1132150C40088E98093C10086E08093C20008959A
S1132160DC012D923D924D925D926D927D928D9205
S11321709D92AD92BD92CD92DD92ED92FD920D9322
S11321801D93CD93DD93FF91EF918DB78D938EB712
S11321908D938FB78D93ED93FD9388279927099499
S11321A0DC01CB0181309105811D2D903D904D9036
S11321B05D906D907D908D909D90AD90BD90CD90F3
S11321C0DD90ED90FD900D911D91CD91DD91ED91FE
S11321D0FD910D90F894FEBF0FBEEDBFED91FD9102
S10921E00994F894FFCFFE
S11321E651158020111E111B500B411B411F11015B
S11321F6511F511B000000000000000000000002F7
S11122060000000004260226028E014302009E
S9030000FC
