:100000000C942E000C942F050C949B050C94070661
:100010000C9473060C94DF060C944B000C94C70DE3
:100020000C944B000C94750D0C944B070C94B70773
:100030000C9423080C948F080C94FB080C9467090B
:100040000C94D3090C943F0A0C94AB0A0C94170B34
:100050000C94830B0C94EF0B0C945B0C11241FBEBF
:10006000CFEFD4E0DEBFCDBF11E0A0E0B1E0ECED1A
:10007000F3E202C005900D92A634B107D9F724E04F
:10008000A6E4B1E001C01D92A53CB207E1F70E94D1
:100090006A010C94EC110C9400000F931F93CF9302
:1000A000DF936630710508F04BC080538A3008F04A
:1000B0008AE0FB01F595E795E451FF4F60FF02C030
:1000C00050EF01C05FE0A82FB0E0AA0FBB1FA05007
:1000D000BF4FCD91DC9161E070E0A0E0B0E0152F62
:1000E0001095012F066604C0149635966F5F7F4FFA
:1000F000CE010A2E02C0969587950A94E2F7482F02
:100100004F706130710569F48081902F982380E1F0
:10011000489F90011124842F822B8523892B808373
:10012000E3CF8081912F982380E1489F9001112493
:10013000842F822B8523892B808364307105A4F260
:10014000DF91CF911F910F9108950F931F93CF933C
:10015000DF93D62FFC01048110E089E2689F812D96
:10016000112482958F70262FF4E68F9F2019112479
:10017000CDEC2C9F812D1124869586958695B8010E
:10018000805D0E944D00B8016F5F7F4FDC9FC12DE5
:100190001124C695C695C695CC0F8C2F880F880F55
:1001A000C80F8D2F8C1B805D0E944D00DF91CF9179
:1001B0001F910F910895FC018481811108C0ECEE1C
:1001C000F0E080818D7F660F682B60830895843016
:1001D00051F4EDEEF0E080818F7B90E4699FB001F7
:1001E0001124682B60830895AF92BF92CF92DF9263
:1001F000EF92FF920F931F93CF935C0140E050E08A
:1002000067E971E1FC01868197810E948D0FC82FFB
:1002100080FF14C0F50104811581CC24C394D12C36
:100220000F2EFEECEF2EF2E0FF2EF02D20E030E05E
:10023000A90160E070E0CB010E947C0EC1FF14C0F8
:10024000F50104811581CC24C394D12C0F2EFAEF33
:10025000EF2EF1E0FF2EF02D20E030E0A90160E06C
:1002600070E0CB010E947C0EC2FF14C0F501048136
:100270001581CC24CA94DC2C0F2EFEECEF2EF2E07C
:10028000FF2EF02D20E030E0A90160E070E0CB010E
:100290000E947C0EC3FF14C0F50104811581CC249B
:1002A000CA94DC2C0F2EFAEFEF2EF1E0FF2EF02D8A
:1002B00020E030E0A90160E070E0CB010E947C0EFC
:1002C000CF911F910F91FF90EF90DF90CF90BF9053
:1002D000AF900895CF93DF9363E370E08EE691E0F3
:1002E0000E943E11AEE4B1E0E6E5F1E01596FC9324
:1002F000EE93149786E491E017969C938E9316974D
:100300004EE251E05787468723E331E0318B208B63
:1003100028E331E0338B228BA6E1B1E015965C93A4
:100320004E931497C2E2D1E03D832C831B969C939D
:100330008E931A979B878A87D387C287B187A087B6
:1003400048E064EF70E08EE491E00E94D91040E054
:1003500050E06CED71E086E591E00E94F310DF91D2
:10036000CF910895CF93DF93EC016F3F8FEF780724
:1003700089F061307105D9F48C819D8118161906B8
:10038000B4F441E050E06FE071E18A859B850E9402
:100390008D0F0DC08E819F811816190644F441E01F
:1003A00050E06FE071E1888599850E948D0F1F8A6A
:1003B0001E8ADF91CF910895CF93DF93EC0140E047
:1003C00050E065EA70E08E859F850E948D0F40E0C9
:1003D00050E065EA70E0888999890E948D0F40E0BD
:1003E00050E065EA70E08A899B890E948D0FDF9159
:1003F000CF910895AF92BF92CF92DF92EF92FF928A
:100400000F931F93CF93DF93EC015B018C859D8548
:10041000860F971F9D878C87AC01992324F444276E
:100420005527481B590B65EA70E0888999890E9415
:100430008D0F8FEFA816B806C9F081E0A816B10499
:1004400049F54C815D81415051095D834C8365EADA
:1004500070E08A899B890E948D0F40E050E06FE038
:1004600071E18A859B850E948D0F14C04E815F814A
:10047000415051095F834E8365EA70E08E859F8508
:100480000E948D0F40E050E06FE071E18885998512
:100490000E948D0F65010F2EFDEEEF2EF3E0FF2E73
:1004A000F02D8E0120E030E0A9016AE572E682E0DD
:1004B00090E00E947C0E0F2EF2EBEF2EF1E0FF2E6B
:1004C000F02D20E030E0A90162E17AE780E090E0E1
:1004D0000E947C0E9F8B8E8BDF91CF911F910F918D
:1004E000FF90EF90DF90CF90BF90AF900895AF92C4
:1004F000BF92CF92DF92EF92FF920F931F93CF9311
:10050000DF935C01EB016A014F3F8FEF580761F009
:100510004130510589F4AB016FE071E1F50182854D
:1005200093850E948D0F08C0AB016FE071E1F5016A
:10053000808591850E948D0F2097D9F0219719F51C
:10054000F50184899589892BF1F40F2EF0E5EF2EC2
:10055000F3E0FF2EF02D850120E030E0A9016AE5EF
:1005600072E682E090E00E947C0EF501958B848B10
:100570000AC0F50184899589009729F00E948810A6
:10058000F501158A148ADF91CF911F910F91FF9089
:10059000EF90DF90CF90BF90AF9008950F931F938F
:1005A000CF93DF9300D0CDB7DEB78C016F3F8FEFD5
:1005B0007807D9F16130710509F06BC0F801448109
:1005C00055814F5F5F4F5583448365EA70E08289B0
:1005D00093890E948D0F40E050E06AE371E1F801D9
:1005E000808591850E948D0F9A838983F801848587
:1005F000958599230CF44DC029813A81213031052C
:1006000009F447C026893789232B09F042C0892B7A
:1006100021F084899589892BE1F141E050E061E086
:1006200070E0C8010E94770234C0F801468157810A
:100630004F5F5F4F5783468365EA70E086859785F5
:100640000E948D0F40E050E06AE371E1F80182857D
:1006500093850E948D0F9A838983F80184859585FF
:1006600018161906B4F029813A812130310589F034
:1006700026893789232B69F4892B21F08489958970
:10068000892B39F04FEF5FEF61E070E0C8010E9405
:1006900077020F900F90DF91CF911F910F910895E6
:1006A0000F931F93CF93DF93EC018B018E899F896A
:1006B000009721F00E9488101F8A1E8A1D8A1C8ABA
:1006C0000F3F8FEF180709F444C00130110509F0FE
:1006D0007FC08C859D85892BA1F08E819F81892B80
:1006E00041F441E050E061E070E0CE010E94770209
:1006F0006FC041E050E060E070E0CE010E94770200
:1007000067C08E819F81181619067CF441E050E085
:1007100060E070E0CE010E9477024FEF5FEF61E092
:1007200070E0CE010E94770253C08C819D81892B9D
:1007300041F441E050E060E070E0CE010E947702B9
:1007400047C041E050E061E070E0CE010E947702D6
:100750003FC08C859D85892BA1F08C819D81892B43
:1007600041F44FEF5FEF61E070E0CE010E9477024D
:100770002FC04FEF5FEF60E070E0CE010E94770284
:1007800027C08C819D81181619067CF44FEF5FEF0E
:1007900060E070E0CE010E94770241E050E061E04D
:1007A00070E0CE010E94770213C08E819F81892B59
:1007B00041F44FEF5FEF60E070E0CE010E947702FE
:1007C00007C04FEF5FEF61E070E0CE010E9477025B
:1007D000DF91CF911F910F9108950F931F93CF93A6
:1007E000DF93EC018B018C859D85861B970B9D8784
:1007F0008C87AC01992324F444275527481B590BB7
:1008000065EA70E0888999890E948D0F8C859D85A5
:10081000892B71F50F3F8FEF1807B9F001301105E3
:1008200039F541E050E060E070E0CE010E947702CF
:100830008E819F8118161906DCF44FEF5FEF61E09F
:1008400070E0CE010E94770213C04FEF5FEF60E0CF
:1008500070E0CE010E9477028C819D8118161906E6
:100860003CF441E050E061E070E0CE010E9477028C
:10087000DF91CF911F910F910895FB01A081B1816C
:100880001097F1F0A817B90711F411C0DF01ED912D
:10089000FC9111973097B9F08E179F07B9F716C0E2
:1008A000808191818D939C9381E090E00895FD017A
:1008B00080819181FB019183808381E090E00895A4
:1008C00080E090E0089580E090E00895109741F76F
:1008D000EFCFCF93DF9300D000D0CDB7DEB785E662
:1008E00092E025E433E0FC01709791838083409689
:1008F00082179307C1F71092360310923503E0EA8E
:10090000F1E08DEB91E0918380838AED91E0968F09
:10091000858FA7EFB1E0B3AFA2AF1D921C92FA830F
:10092000E983E1EAF3E0FC83EB8389819A8106960F
:100930000E94AB118B819C81E981FA81978B868B18
:10094000918F808F8AE190E1948F838F158214823A
:100950007D96FA83E983EB81FC81E05AFF4FFC83AB
:10096000EB8389819A8184519240F9F6E8E3F2E0C1
:10097000118210821582148213821282E1E6F0E065
:1009800080E880831082109285001092840084E0B9
:100990008093810081E080936F000F900F900F9003
:1009A0000F90DF91CF910895CF93DF9300D0CDB713
:1009B000DEB79A83898380913D0190913E0106962E
:1009C0000E94AB11892B59F489819A8190933E0141
:1009D00080933D0161E070E006960E94CB110F907C
:1009E0000F90DF91CF9108950F931F93CF93DF93D3
:1009F000E0917A01F0917B01309761F180914101A2
:100A000090914201009731F1C0913F01D091400196
:100A1000AA81BB81109779F04681578160857185E5
:100A200016960D911D912D913C911997401B510BDC
:100A3000620B730B7AF4FC01208131813093420107
:100A400020934101D183C0839093400180933F0163
:100A50000E94D404DF91CF911F910F9108951F92AE
:100A60000F920FB60F9211242F933F934F935F93E2
:100A70006F937F938F939F93AF93BF93EF93FF9366
:100A80002091720130917301409184005091850052
:100A9000C901032E000CAA0BBB0BDC019927882788
:100AA00060E070E0842B952BA62BB72B809374010C
:100AB00090937501A0937601B0937701B09B1BC012
:100AC0004091840050918500C9010196092E000CC7
:100AD000AA0BBB0BDC019927882760E070E0842B10
:100AE000952BA62BB72B8093740190937501A0933F
:100AF0007601B0937701E0911402F09115023097DE
:100B000039F060E070E080917C0190917D01099561
:100B10000E94F404FF91EF91BF91AF919F918F914B
:100B20007F916F915F914F913F912F910F900FBEE9
:100B30000F901F9018951F920F920FB60F921124CD
:100B40002F933F934F935F936F937F938F939F93D5
:100B5000AF93BF93EF93FF93209172013091730194
:100B60004091840050918500C901032E000CAA0B0E
:100B7000BB0BDC019927882760E070E0842B952B64
:100B8000A62BB72B8093740190937501A0937601E7
:100B9000B0937701B09B1BC04091840050918500B9
:100BA000C9010196092E000CAA0BBB0BDC01992789
:100BB000882760E070E0842B952BA62BB72B8093C1
:100BC000740190937501A0937601B0937701E09141
:100BD0001602F0911702309739F061E070E08091D1
:100BE0007E0190917F0109950E94F404FF91EF919D
:100BF000BF91AF919F918F917F916F915F914F9135
:100C00003F912F910F900FBE0F901F9018951F923C
:100C10000F920FB60F9211242F933F934F935F9330
:100C20006F937F938F939F93AF93BF93EF93FF93B4
:100C300020917201309173014091840050918500A0
:100C4000C901032E000CAA0BBB0BDC0199278827D6
:100C500060E070E0842B952BA62BB72B809374015A
:100C600090937501A0937601B0937701B09B1BC060
:100C70004091840050918500C9010196092E000C15
:100C8000AA0BBB0BDC019927882760E070E0842B5E
:100C9000952BA62BB72B8093740190937501A0938D
:100CA0007601B0937701E0911802F0911902309724
:100CB00039F062E070E080918001909181010995A6
:100CC0000E94F404FF91EF91BF91AF919F918F919A
:100CD0007F916F915F914F913F912F910F900FBE38
:100CE0000F901F9018951F920F920FB60F9211241C
:100CF0002F933F934F935F936F937F938F939F9324
:100D0000AF93BF93EF93FF932091720130917301E2
:100D10004091840050918500C901032E000CAA0B5C
:100D2000BB0BDC019927882760E070E0842B952BB2
:100D3000A62BB72B8093740190937501A093760135
:100D4000B0937701B09B1BC0409184005091850007
:100D5000C9010196092E000CAA0BBB0BDC019927D7
:100D6000882760E070E0842B952BA62BB72B80930F
:100D7000740190937501A0937601B0937701E0918F
:100D80001A02F0911B02309739F063E070E0809115
:100D900082019091830109950E94F404FF91EF91E3
:100DA000BF91AF919F918F917F916F915F914F9183
:100DB0003F912F910F900FBE0F901F9018951F928B
:100DC0000F920FB60F9211242F933F934F935F937F
:100DD0006F937F938F939F93AF93BF93EF93FF9303
:100DE00020917201309173014091840050918500EF
:100DF000C901032E000CAA0BBB0BDC019927882725
:100E000060E070E0842B952BA62BB72B80937401A8
:100E100090937501A0937601B0937701B09B1BC0AE
:100E20004091840050918500C9010196092E000C63
:100E3000AA0BBB0BDC019927882760E070E0842BAC
:100E4000952BA62BB72B8093740190937501A093DB
:100E50007601B0937701E0911C02F0911D0230976A
:100E600039F064E070E080918401909185010995EA
:100E70000E94F404FF91EF91BF91AF919F918F91E8
:100E80007F916F915F914F913F912F910F900FBE86
:100E90000F901F9018951F920F920FB60F9211246A
:100EA0002F933F934F935F936F937F938F939F9372
:100EB000AF93BF93EF93FF93209172013091730131
:100EC0004091840050918500C901032E000CAA0BAB
:100ED000BB0BDC019927882760E070E0842B952B01
:100EE000A62BB72B8093740190937501A093760184
:100EF000B0937701B09B1BC0409184005091850056
:100F0000C9010196092E000CAA0BBB0BDC01992725
:100F1000882760E070E0842B952BA62BB72B80935D
:100F2000740190937501A0937601B0937701E091DD
:100F30001E02F0911F02309739F065E070E0809159
:100F400086019091870109950E94F404FF91EF9129
:100F5000BF91AF919F918F917F916F915F914F91D1
:100F60003F912F910F900FBE0F901F9018951F92D9
:100F70000F920FB60F9211242F933F934F935F93CD
:100F80006F937F938F939F93AF93BF93EF93FF9351
:100F9000209172013091730140918400509185003D
:100FA000C901032E000CAA0BBB0BDC019927882773
:100FB00060E070E0842B952BA62BB72B80937401F7
:100FC00090937501A0937601B0937701B09B1BC0FD
:100FD0004091840050918500C9010196092E000CB2
:100FE000AA0BBB0BDC019927882760E070E0842BFB
:100FF000952BA62BB72B8093740190937501A0932A
:101000007601B0937701E0912002F09121023097B0
:1010100039F066E070E0809188019091890109952E
:101020000E94F404FF91EF91BF91AF919F918F9136
:101030007F916F915F914F913F912F910F900FBED4
:101040000F901F9018951F920F920FB60F921124B8
:101050002F933F934F935F936F937F938F939F93C0
:10106000AF93BF93EF93FF9320917201309173017F
:101070004091840050918500C901032E000CAA0BF9
:10108000BB0BDC019927882760E070E0842B952B4F
:10109000A62BB72B8093740190937501A0937601D2
:1010A000B0937701B09B1BC04091840050918500A4
:1010B000C9010196092E000CAA0BBB0BDC01992774
:1010C000882760E070E0842B952BA62BB72B8093AC
:1010D000740190937501A0937601B0937701E0912C
:1010E0002202F0912302309739F067E070E080919E
:1010F0008A0190918B0109950E94F404FF91EF9170
:10110000BF91AF919F918F917F916F915F914F911F
:101110003F912F910F900FBE0F901F9018951F9227
:101120000F920FB60F9211242F933F934F935F931B
:101130006F937F938F939F93AF93BF93EF93FF939F
:10114000209172013091730140918400509185008B
:10115000C901032E000CAA0BBB0BDC0199278827C1
:1011600060E070E0842B952BA62BB72B8093740145
:1011700090937501A0937601B0937701B09B1BC04B
:101180004091840050918500C9010196092E000C00
:10119000AA0BBB0BDC019927882760E070E0842B49
:1011A000952BA62BB72B8093740190937501A09378
:1011B0007601B0937701E0912402F09125023097F7
:1011C00039F068E070E080918C0190918D01099573
:1011D0000E94F404FF91EF91BF91AF919F918F9185
:1011E0007F916F915F914F913F912F910F900FBE23
:1011F0000F901F9018951F920F920FB60F92112407
:101200002F933F934F935F936F937F938F939F930E
:10121000AF93BF93EF93FF932091720130917301CD
:101220004091840050918500C901032E000CAA0B47
:10123000BB0BDC019927882760E070E0842B952B9D
:10124000A62BB72B8093740190937501A093760120
:10125000B0937701B09B1BC04091840050918500F2
:10126000C9010196092E000CAA0BBB0BDC019927C2
:10127000882760E070E0842B952BA62BB72B8093FA
:10128000740190937501A0937601B0937701E0917A
:101290002602F0912702309739F069E070E08091E2
:1012A0008E0190918F0109950E94F404FF91EF91B6
:1012B000BF91AF919F918F917F916F915F914F916E
:1012C0003F912F910F900FBE0F901F9018951F9276
:1012D0000F920FB60F9211242F933F934F935F936A
:1012E0006F937F938F939F93AF93BF93EF93FF93EE
:1012F00020917201309173014091840050918500DA
:10130000C901032E000CAA0BBB0BDC01992788270F
:1013100060E070E0842B952BA62BB72B8093740193
:1013200090937501A0937601B0937701B09B1BC099
:101330004091840050918500C9010196092E000C4E
:10134000AA0BBB0BDC019927882760E070E0842B97
:10135000952BA62BB72B8093740190937501A093C6
:101360007601B0937701E0912802F091290230973D
:1013700039F06AE070E080919001909191010995B7
:101380000E94F404FF91EF91BF91AF919F918F91D3
:101390007F916F915F914F913F912F910F900FBE71
:1013A0000F901F9018951F920F920FB60F92112455
:1013B0002F933F934F935F936F937F938F939F935D
:1013C000AF93BF93EF93FF9320917201309173011C
:1013D0004091840050918500C901032E000CAA0B96
:1013E000BB0BDC019927882760E070E0842B952BEC
:1013F000A62BB72B8093740190937501A09376016F
:10140000B0937701B09B1BC0409184005091850040
:10141000C9010196092E000CAA0BBB0BDC01992710
:10142000882760E070E0842B952BA62BB72B809348
:10143000740190937501A0937601B0937701E091C8
:101440002A02F0912B02309739F06BE070E0809126
:1014500092019091930109950E94F404FF91EF91FC
:10146000BF91AF919F918F917F916F915F914F91BC
:101470003F912F910F900FBE0F901F9018951F92C4
:101480000F920FB60F9211242F933F934F935F93B8
:101490006F937F938F939F93AF93BF93EF93FF933C
:1014A0002091720130917301409184005091850028
:1014B000C901032E000CAA0BBB0BDC01992788275E
:1014C00060E070E0842B952BA62BB72B80937401E2
:1014D00090937501A0937601B0937701B09B1BC0E8
:1014E0004091840050918500C9010196092E000C9D
:1014F000AA0BBB0BDC019927882760E070E0842BE6
:10150000952BA62BB72B8093740190937501A09314
:101510007601B0937701E0912C02F0912D02309783
:1015200039F06CE070E080919401909195010995FB
:101530000E94F404FF91EF91BF91AF919F918F9121
:101540007F916F915F914F913F912F910F900FBEBF
:101550000F901F9018951F920F920FB60F921124A3
:101560002F933F934F935F936F937F938F939F93AB
:10157000AF93BF93EF93FF9320917201309173016A
:101580004091840050918500C901032E000CAA0BE4
:10159000BB0BDC019927882760E070E0842B952B3A
:1015A000A62BB72B8093740190937501A0937601BD
:1015B000B0937701B09B1BC040918400509185008F
:1015C000C9010196092E000CAA0BBB0BDC0199275F
:1015D000882760E070E0842B952BA62BB72B809397
:1015E000740190937501A0937601B0937701E09117
:1015F0002E02F0912F02309739F06DE070E080916B
:1016000096019091970109950E94F404FF91EF9142
:10161000BF91AF919F918F917F916F915F914F910A
:101620003F912F910F900FBE0F901F9018951F9212
:101630000F920FB60F9211242F933F934F935F9306
:101640006F937F938F939F93AF93BF93EF93FF938A
:101650002091720130917301409184005091850076
:10166000C901032E000CAA0BBB0BDC0199278827AC
:1016700060E070E0842B952BA62BB72B8093740130
:1016800090937501A0937601B0937701B09B1BC036
:101690004091840050918500C9010196092E000CEB
:1016A000AA0BBB0BDC019927882760E070E0842B34
:1016B000952BA62BB72B8093740190937501A09363
:1016C0007601B0937701E0913002F09131023097CA
:1016D00039F06EE070E08091980190919901099540
:1016E0000E94F404FF91EF91BF91AF919F918F9170
:1016F0007F916F915F914F913F912F910F900FBE0E
:101700000F901F9018951F920F920FB60F921124F1
:101710002F933F934F935F936F937F938F939F93F9
:10172000AF93BF93EF93FF932091720130917301B8
:101730004091840050918500C901032E000CAA0B32
:10174000BB0BDC019927882760E070E0842B952B88
:10175000A62BB72B8093740190937501A09376010B
:10176000B0937701B09B1BC04091840050918500DD
:10177000C9010196092E000CAA0BBB0BDC019927AD
:10178000882760E070E0842B952BA62BB72B8093E5
:10179000740190937501A0937601B0937701E09165
:1017A0003202F0913302309739F06FE070E08091AF
:1017B0009A0190919B0109950E94F404FF91EF9189
:1017C000BF91AF919F918F917F916F915F914F9159
:1017D0003F912F910F900FBE0F901F9018951F9261
:1017E0000F920FB60F9211242F933F934F935F9355
:1017F0006F937F938F939F93AF93BF93EF93FF93D9
:1018000020917201309173014091840050918500C4
:10181000C901032E000CAA0BBB0BDC0199278827FA
:1018200060E070E0842B952BA62BB72B809374017E
:1018300090937501A0937601B0937701B09B1BC084
:101840004091840050918500C9010196092E000C39
:10185000AA0BBB0BDC019927882760E070E0842B82
:10186000952BA62BB72B8093740190937501A093B1
:101870007601B0937701E0913402F0913502309710
:1018800039F060E170E080919C0190919D01099593
:101890000E94F404FF91EF91BF91AF919F918F91BE
:1018A0007F916F915F914F913F912F910F900FBE5C
:1018B0000F901F9018951F920F920FB60F92112440
:1018C0002F933F934F935F936F937F938F939F9348
:1018D000AF93BF93EF93FF93209172013091730107
:1018E0004091840050918500C901032E000CAA0B81
:1018F000BB0BDC019927882760E070E0842B952BD7
:10190000A62BB72B8093740190937501A093760159
:10191000B0937701B09B1BC040918400509185002B
:10192000C9010196092E000CAA0BBB0BDC019927FB
:10193000882760E070E0842B952BA62BB72B809333
:10194000740190937501A0937601B0937701E091B3
:101950003602F0913702309739F061E170E0809102
:101960009E0190919F0109950E94F404FF91EF91CF
:10197000BF91AF919F918F917F916F915F914F91A7
:101980003F912F910F900FBE0F901F901895EF92DF
:10199000FF920F931F93CF93DF937B01EB01A881FD
:1019A000B981109761F1FC0106811781208531858D
:1019B00016964D915D916D917C91199704171507BD
:1019C0002607370714F41BC0DF01ED91FC91119736
:1019D000309749F046815781608571850417150756
:1019E000260737078CF7EC01F983E883109721F479
:1019F000F7019183808307C08D939C9304C0EC0111
:101A0000B983A883F5CFDF91CF911F910F91FF90FC
:101A1000EF900895EF92FF920F931F93CF93DF9370
:101A20007B01EB01A881B981109761F1FC01028172
:101A300013812481358112964D915D916D917C9138
:101A40001597041715072607370714F41BC0DF0185
:101A5000ED91FC911197309749F042815381648157
:101A6000758104171507260737078CF7EC01F983F2
:101A7000E883109721F4F7019183808307C08D9349
:101A80009C9304C0EC01B983A883F5CFDF91CF917B
:101A90001F910F91FF90EF900895CF93DF9300D0A7
:101AA000CDB7DEB7FC01208131813A8329832981BA
:101AB0003A81232B51F0E981FA8120813181FC01A7
:101AC0003183208389819A810BC08FEF8093EC0052
:101AD0008093ED008093EE0081E083BF8895FDCF79
:101AE0000F900F90DF91CF9108951F920F920FB634
:101AF0000F9211242F933F934F935F936F937F9394
:101B00008F939F93EF93FF93809172019091730154
:101B100001969093730180937201E0917801F091A6
:101B20007901309701F14281538164817581861773
:101B30009707C9F4CA012091840030918500421BA7
:101B4000530B4130510529F4809184009091850018
:101B500001969093890080938800EFE6F0E0808101
:101B60008260808305C0EFE6F0E080818D7F808316
:101B7000FF91EF919F918F917F916F915F914F9125
:101B80003F912F910F900FBE0F901F9018951F92AD
:101B90000F920FB60F921124CF92DF92EF92FF9225
:101BA0002F933F934F935F936F937F938F939F9365
:101BB000AF93BF93EF93FF93C0907201D0907301E6
:101BC0002091840030918500B0990FC00D2C000C3D
:101BD000EE08FF08D601992788276901E12CF12C2E
:101BE000C82AD92AEA2AFB2A15C0209184003091FC
:101BF00085008FEFC81AD80A0D2C000CEE08FF08DC
:101C0000D601992788276901E12CF12CC82AD92A05
:101C1000EA2AFB2AE0917801F0917901309709F4E2
:101C200042C082819381A481B5818C199D09AE093E
:101C3000BF09181619061A061B06ECF188E791E091
:101C40000E944D0D6AE771E00E94C70CE091780197
:101C5000F0917901309739F182819381A481B58126
:101C60008C199D09AE09BF09181619061A061B061C
:101C70002CF721C09C014091840050918500841B69
:101C8000950B019731F420918400309185002F5FEE
:101C90003F4F3093890020938800EFE6F0E0808189
:101CA0008260808305C0EFE6F0E080818D7F8083D5
:101CB0000E94F4040CC082819381A481B58120919B
:101CC0007201309173012A173B0769F7D3CFFF9157
:101CD000EF91BF91AF919F918F917F916F915F91A4
:101CE0004F913F912F91FF90EF90DF90CF900F9009
:101CF0000FBE0F901F9018953F924F925F926F9278
:101D00007F928F929F92AF92BF92CF92DF92EF928B
:101D1000FF920F931F93CF93DF932B013C01490157
:101D20005A018FB78078382EF89483E491E00E94AE
:101D30004D0DEC011B870A87FD86EC86DF86CE867B
:101D4000332061F0E0913D01F0913E010280F3818A
:101D5000E02D82819381A481B58108C080917401B6
:101D600090917501A0917601B0917701480E591EAE
:101D70006A1E7B1E4A825B826C827D821814190463
:101D80001A041B0444F00F2E88248A94982CA82C43
:101D9000FFE7BF2EF02D840C951CA61CB71C8E826D
:101DA0009F82A886B98680917201909173014091BB
:101DB000840050918500B0990EC0092E000CAA0B2A
:101DC000BB0BDC019927882760E070E0842B952B02
:101DD000A62BB72B13C0209184003091850001966B
:101DE000092E000CAA0BBB0BDC0199278827A9013F
:101DF00060E070E0842B952BA62BB72B481A590A6C
:101E00006A0A7B0A1414150416041704ACF568E773
:101E100071E0CE010E940A0DE0917801F091790104
:101E2000309721F182819381A481B5812091720143
:101E3000309173012A173B07C9F49C01409184003B
:101E400050918500841B950B019731F420918400FB
:101E5000309185002F5F3F4F309389002093880099
:101E6000EFE6F0E080818260808341C0EFE6F0E041
:101E700080818D7F80833BC06AE771E0CE010E9444
:101E8000C70C3320B9F18091410190914201009734
:101E900081F1E0913F01F091400120917A01309170
:101EA0007B0102811381D90116964D915D916D914F
:101EB0007C911997D80116960D911D912D913C9109
:101EC0001997401B510B620B730B9AF4DC012D9197
:101ED0003C9111973093420120934101ED93FC9383
:101EE0009093400180933F010E94D40402C03320AC
:101EF00009F07894CE01DF91CF911F910F91FF905F
:101F0000EF90DF90CF90BF90AF909F908F907F9099
:101F10006F905F904F903F900895CF92DF92EF9235
:101F2000FF920F931F93CF93DF93EC017B016A0124
:101F30001FB71078F894A881B981109761F11496B1
:101F4000ED91FC911597309741F0A081B1811496E5
:101F5000ED91FC9115973097C1F720913D0130919B
:101F60003E012A173B0721F0112309F43DC007C0A9
:101F7000112309F43CC078948FEF9FEF52C08A81FF
:101F80009B810097D1F1FC011582148236C07894B0
:101F900080E090E046C080913D0190913E019983A0
:101FA0008883112329F08A819B81019709F0789415
:101FB000B601CE01F7010995F82E092F8FB7F894D5
:101FC000198218828A819B818230910538F01B82A8
:101FD0001A82FC01158214820E94D404112351F04C
:101FE00078948F2D902F1DC08FEF9FEF1AC08FEF29
:101FF0009FEF17C08F2D902F14C03B832A83F901C8
:10200000D583C483CD010E94D404E0913D01F091B9
:102010003E0182819381892B09F4B9CFF983E8834A
:10202000C2CFDF91CF911F910F91FF90EF90DF9082
:10203000CF90089500913D0110913E018AE791E013
:102040000E944D0DEC01D80113969C938E9312972C
:1020500078944E855F856C857D858A859B850E94F9
:102060008D0F8FB7F894809143019091440199832B
:102070008883D0934401C0934301E0913F01F091E4
:10208000400100811181E8012A813B81A0917A0100
:10209000B0917B011097C1F02115310559F21696C8
:1020A0008D919D910D90BC91A02DE9014E815F8194
:1020B00068857985841B950BA60BB70B1816190636
:1020C0001A061B060CF0B6CF1093400100933F0197
:1020D000809141019091420191838083F09342016C
:1020E000E0934101A0913F01B09140011496ED9120
:1020F000FC911597309741F0A081B1811496ED9134
:10210000FC9115973097C1F7CD010E94D40492CF6E
:102110001F93CF93DF93EC011FB71078F89468E713
:1021200071E00E943D04892B39F46AE771E0CE0129
:102130000E943D04892B59F0809143019091440104
:1021400099838883D0934401C09343012BC0E091CD
:102150003F01F0914001309729F120913D013091EC
:102160003E012E173F07C9F082819381C817D90716
:10217000A1F4448155818A859B854817590769F4E4
:102180001382128280914301909144019983888344
:10219000D0934401C093430105C00190F081E02D2C
:1021A0003097F9F6112309F07894DF91CF911F91C0
:1021B00008954231B8F42FB7F89450E0440F551FFA
:1021C000FA01E458FE4F91838083FA01EC5EFD4FE3
:1021D0007183608341E050E0FC01538342832223FA
:1021E0000CF4789408958C017B016A018FB7F89400
:1021F0000E9469047894E114F10441F020E030E099
:10220000A90160E070E0CB010E947C0E8FB7F894CA
:102210000E94F404789481E083BF8895FDCF0F93EA
:102220001F93CF93DF93EC018B01AB016BED70E05B
:102230008C819D810E948D0F1F830E8388859985D7
:102240008F3F2FEF920751F0019779F4A8016FE9C2
:1022500071E18A859B850E948D0F07C0A80165EA00
:1022600071E18A859B850E948D0FDF91CF911F912F
:102270000F910895FC01868197810895E1E6F0E0D1
:1022800080E8808310828FE08093E70087EB809363
:10229000E50087E08093E60090EC9093E40085B140
:1022A000806D85B98EB18C608EB98FE284B980E57E
:1022B0008DB98CE080936B0080ED80936C009DBBAA
:1022C0007093C5006093C40088E98093C10086E0E4
:1022D0008093C2000895DC01E0ECF0E0908195FF6E
:1022E000FDCF16968D919C9117978130910541F401
:1022F00014968D919C911597892B79F080E014C0EC
:10230000892B69F414968D919C91159781309105D4
:1023100041F0892B41F080E007C089E005C080E0F2
:1023200003C086E001C08AE08093C6000895E0EC17
:10233000F0E080818823ECF78091C6000895FC01CD
:10234000778366830E946B110895FC017583648313
:102350000E946B110895DC012D923D924D925D9289
:102360006D927D928D929D92AD92BD92CD92DD92B5
:10237000ED92FD920D931D93CD93DD93FF91EF911F
:102380008DB78D938EB78D938FB78D93ED93FD930E
:10239000882799270994DC01CB0181309105811DA3
:1023A0002D903D904D905D906D907D908D909D9085
:1023B000AD90BD90CD90DD90ED90FD900D911D9173
:1023C000CD91DD91ED91FD910D90F894FEBF0FBE82
:0C23D000EDBFED91FD910994F894FFCF52
:1023DC0051158020111E111B500B411B411F110167
:1023EC00511F511B00000000000000000000FFFF07
:1023FC0000000000000000000000010000000000D0
:10240C000000000000000002000000000438023848
:06241C0002A001550200C0
:00000001FF
