:100000000C942E000C944B000C944B000C94520159
:100010000C944B000C944B000C944B000C942A0154
:100020000C944B000C944B000C944B000C944B0024
:100030000C944B000C944B000C944B000C944B0014
:100040000C944B000C944B000C944B000C944B0004
:100050000C944B000C944B000C944B0011241FBECD
:10006000CFEFD4E0DEBFCDBF11E0A0E0B1E0E2EE23
:10007000F5E002C005900D92AA31B107D9F723E04F
:10008000AAE1B1E001C01D92A334B207E1F70E94DA
:100090007C010C94EF020C940000ECEEF0E09081F7
:1000A0008081809582709D7F892B808308958FE069
:1000B0008093E70087EB8093E50087E08093E6007C
:1000C00080EC8093E40008950F931F93CF93DF9308
:1000D0006630710508F04BC080538A3008F08AE022
:1000E000FB01F595E795E451FF4F60FF02C050EF2B
:1000F00001C05FE0A82FB0E0AA0FBB1FA050BF4F08
:10010000CD91DC9161E070E0A0E0B0E0152F10959A
:10011000012F066604C0149635966F5F7F4FCE019F
:100120000A2E02C0969587950A94E2F7482F4F70E1
:100130006130710569F48081902F982380E1489F98
:1001400090011124842F822B8523892B8083E3CF78
:100150008081912F982380E1489F90011124842F62
:10016000822B8523892B808364307105A4F2DF9173
:10017000CF911F910F910895CF92DF92EF92FF924E
:100180000F931F93CF93DF9300D0CDB7DEB76B01F2
:100190007C018A0124E630E040E050E00E946D02DC
:1001A0002AE030E040E050E00E946D02B80180E3B8
:1001B000820F0E9464001A82198289819A81883E86
:1001C000934054F489819A8101969A838983898125
:1001D0009A81883E9340B4F30F5F1F4FC701B60169
:1001E0002AE030E040E050E00E946D02862FB80126
:1001F000805D0E9464000F900F90DF91CF911F915E
:100200000F91FF90EF90DF90CF900895ECEEF0E02B
:1002100090818081809584749B7B892B80838091E1
:100220001A0190911B01A0911C01B0911D01BC010C
:10023000CD016F5F7F4F8F4F9F4F60931A01709377
:100240001B0180931C0190931D0144E050E00E942B
:10025000BC0008951F920F920FB60F9211242F9396
:100260003F934F935F936F937F938F939F93AF933E
:10027000BF93EF93FF9360E070E08DE490E00E9405
:10028000B101FF91EF91BF91AF919F918F917F91BC
:100290006F915F914F913F912F910F900FBE0F90F3
:1002A0001F9018951F920F920FB60F9211242F9343
:1002B0003F934F935F936F937F938F939F93AF93EE
:1002C000BF93EF93FF931F9906C060E070E086E054
:1002D00091E00E94B101FF91EF91BF91AF919F9189
:1002E0008F917F916F915F914F913F912F910F90DF
:1002F0000FBE0F901F901895E1E6F0E080E8808334
:1003000010820E945700ECEEF0E0808184608083D0
:1003100060E070E08DE490E00E94B10180E090E048
:100320000895CF93DF9300D0CDB7DEB79A8389834A
:10033000809116019091170106960E94AE02892BBA
:1003400059F489819A81909317018093160161E095
:1003500070E006960E94CE020F900F90DF91CF9131
:100360000895CF93DF9300D0CDB7DEB7F8942091F6
:100370001E0130911F01232BA1F52CEF31E03093AA
:1003800094012093930129E632E0309301022093F7
:10039000000226ED32E030936E0220936D0210923F
:1003A000DB021092DA022D9A2F9A22E020936F003E
:1003B0002DE02093810022E43FE0309389002093D8
:1003C00088001092850010928400EF9AECE6F0E02D
:1003D00020812068208321E030E030931F012093AA
:1003E0001E0120911801309119013A832983232B92
:1003F000A9F0E981FA814481558150931901409314
:100400001801918380837383628315821482CF01E4
:1004100006960E94AE020197B1F501C0FFCF789415
:10042000A0911601B0911701ED91FC9111971296D0
:100430008D919C9113970995F894E0911601F09194
:1004400017018091180190911901009729F4F093F8
:100450001901E093180106C095838483F093190174
:10046000E09318018091200190912101009751F0B3
:10047000FC012481358130932101209320010E94C9
:10048000910101C0FFCFE981FA81369689819A8175
:1004900087599F4F918B808B938B828BE0911601B4
:1004A000F09117018091200190912101009729F48A
:1004B000F0932101E093200106C095838483F0939B
:1004C0002101E093200189819A810E949101789411
:1004D0000F900F90DF91CF910895052E97FB1EF49A
:1004E00000940E94840257FD07D00E948C0207FCF2
:1004F00003D04EF40C94840250954095309521958C
:100500003F4F4F4F5F4F089590958095709561953F
:100510007F4F8F4F9F4F0895A1E21A2EAA1BBB1B3E
:10052000FD010DC0AA1FBB1FEE1FFF1FA217B307BF
:10053000E407F50720F0A21BB30BE40BF50B661FD5
:10054000771F881F991F1A9469F760957095809599
:1005500090959B01AC01BD01CF010895DC012D9266
:100560003D924D925D926D927D928D929D92AD9253
:10057000BD92CD92DD92ED92FD920D931D93CD93A0
:10058000DD93FF91EF918DB78D938EB78D938FB7DC
:100590008D93ED93FD93882799270994DC01CB0176
:1005A00081309105811D2D903D904D905D906D9015
:1005B0007D908D909D90AD90BD90CD90DD90ED9013
:1005C000FD900D911D91CD91DD91ED91FD910D90DD
:1005D000F894FEBF0FBEEDBFED91FD910994F89424
:0205E000FFCF4B
:1005E20051158020111E111B500B411B411F11017F
:0A05F200511F511B000022018F0170
:00000001FF
