:100000000C942E000C944B000C944B000C94B701F4
:100010000C944B000C944B000C944B000C948F01EF
:100020000C944B000C944B000C944B000C944B0024
:100030000C944B000C944B000C944B000C944B0014
:100040000C944B000C944B000C944B000C944B0004
:100050000C944B000C944B000C944B0011241FBECD
:10006000CFEFD4E0DEBFCDBF11E0A0E0B1E0E0EB28
:10007000F6E002C005900D92AA31B107D9F723E04E
:10008000AAE1B1E001C01D92A334B207E1F70E94DA
:10009000E1010C9456030C940000ECEEF0E090812A
:1000A0008081809582709D7F892B808308958FE069
:1000B0008093E70087EB8093E50087E08093E6007C
:1000C00080EC8093E40008950F931F93CF93DF9308
:1000D0006630710508F04BC080538A3008F08AE022
:1000E000FB01F595E795E451FF4F60FF02C050EF2B
:1000F00001C05FE0A82FB0E0AA0FBB1FA050BF4F08
:10010000CD91DC9161E070E0A0E0B0E0152F10959A
:10011000012F066604C0149635966F5F7F4FCE019F
:100120000A2E02C0969587950A94E2F7482F4F70E1
:100130006130710569F48081902F982380E1489F98
:1001400090011124842F822B8523892B8083E3CF78
:100150008081912F982380E1489F90011124842F62
:10016000822B8523892B808364307105A4F2DF9173
:10017000CF911F910F9108958F929F92AF92BF924E
:10018000CF92DF92EF92FF924B015C0183E08816E1
:100190009104A104B10494F1D501C401817099279F
:1001A000AA27B078BB2354F40197A109B1098E6F37
:1001B0009F6FAF6FBF6F0196A11DB11D892B8A2B59
:1001C0008B2BF1F0C12CD12C76016894C1F80AC0B8
:1001D000C501B401A70196010E94D402672B682BC8
:1001E000692B81F08FEFC81AD80AE80AF80A8C1434
:1001F0009D04AE04BF0461F781E005C081E003C047
:1002000080E001C080E0FF90EF90DF90CF90BF9042
:10021000AF909F908F900895CF92DF92EF92FF92D0
:100220000F931F93CF93DF9300D0CDB7DEB76B0151
:100230007C018A0124E630E040E050E00E94D402D4
:100240002AE030E040E050E00E94D402B80180E3B0
:10025000820F0E9464001A82198289819A81883EE5
:10026000934054F489819A8101969A838983898184
:100270009A81883E9340B4F30F5F1F4FC701B601C8
:100280002AE030E040E050E00E94D402862FB8011E
:10029000805D0E9464000F900F90DF91CF911F91BD
:1002A0000F91FF90EF90DF90CF900895ECEEF0E08B
:1002B00090818081809584749B7B892B8083809141
:1002C0001A0190911B01A0911C01B0911D01BC016C
:1002D000CD016F5F7F4F8F4F9F4F60931A017093D7
:1002E0001B0180931C0190931D0144E050E00E948B
:1002F0000C010895C12CD12C7601C701B6010E94D2
:10030000BC00882331F040E050E0C701B6010E94F4
:100310000C018FEFC81AD80AE80AF80AEECF1F922C
:100320000F920FB60F9211242F933F934F935F9329
:100330006F937F938F939F93AF93BF93EF93FF93AD
:1003400060E070E08DE490E00E941502FF91EF9173
:10035000BF91AF919F918F917F916F915F914F91DD
:100360003F912F910F900FBE0F901F9018951F92E5
:100370000F920FB60F9211242F933F934F935F93D9
:100380006F937F938F939F93AF93BF93EF93FF935D
:100390001F9906C060E070E086E591E00E941502BA
:1003A000FF91EF91BF91AF919F918F917F916F914D
:1003B0005F914F913F912F910F900FBE0F901F9023
:1003C0001895E1E6F0E080E8808310820E945700F3
:1003D000ECEEF0E080818460808360E070E08DE48A
:1003E00090E00E9415020E947A01CF93DF9300D023
:1003F000CDB7DEB79A83898380911601909117015A
:1004000006960E941503892B59F489819A8190934D
:1004100017018093160161E070E006960E94350393
:100420000F900F90DF91CF910895CF93DF9300D07D
:10043000CDB7DEB7F89420911E0130911F01232B18
:10044000B9F52CEF31E0309394012093930129E624
:1004500032E0309301022093000226ED32E0309327
:100460006E0220936D021092DB021092DA0220ECF1
:10047000209380002D9A2F9A22E020936F002DE088
:100480002093810022E43FE030938900209388008C
:100490001092850010928400EF9AECE6F0E0208143
:1004A0002068208321E030E030931F0120931E015B
:1004B00020911801309119013A832983232BA9F047
:1004C000E981FA81448155815093190140931801C3
:1004D000918380837383628315821482CF01069691
:1004E0000E9415030197B1F501C0FFCF7894A09148
:1004F0001601B0911701ED91FC91119712968D9113
:100500009C9113970995F894E0911601F0911701C9
:100510008091180190911901009729F4F093190125
:10052000E093180106C095838483F0931901E0934A
:1005300018018091200190912101009751F0FC0158
:100540002481358130932101209320010E94F501FF
:1005500001C0FFCFE981FA81369689819A81875956
:100560009F4F918B808B938B828BE0911601F09142
:1005700017018091200190912101009729F4F093B7
:100580002101E093200106C095838483F09321012B
:10059000E093200189819A810E94F50178940F905F
:1005A0000F90DF91CF910895052E97FB1EF40094D4
:1005B0000E94EB0257FD07D00E94F30207FC03D014
:1005C0004EF40C94EB0250954095309521953F4F99
:1005D0004F4F5F4F089590958095709561957F4F2F
:1005E0008F4F9F4F0895A1E21A2EAA1BBB1BFD013E
:1005F0000DC0AA1FBB1FEE1FFF1FA217B307E40702
:10060000F50720F0A21BB30BE40BF50B661F771F59
:10061000881F991F1A9469F7609570958095909539
:100620009B01AC01BD01CF010895DC012D923D92EB
:100630004D925D926D927D928D929D92AD92BD9202
:10064000CD92DD92ED92FD920D931D93CD93DD93AE
:10065000FF91EF918DB78D938EB78D938FB78D935B
:10066000ED93FD93882799270994DC01CB01813014
:100670009105811D2D903D904D905D906D907D90E8
:100680008D909D90AD90BD90CD90DD90ED90FD90C2
:100690000D911D91CD91DD91ED91FD910D90F8940D
:1006A000FEBF0FBEEDBFED91FD910994F894FFCF11
:1006B00051158020111E111B500B411B411F1101B0
:0A06C000511F511B000022018F01A1
:00000001FF
