:100000000C942E000C944B000C944B000C944B0061
:100010000C944B000C944B000C944B000C946E0110
:100020000C944B000C944B000C944B000C944B0024
:100030000C944B000C944B000C944B000C944B0014
:100040000C944B000C944B000C944B000C944B0004
:100050000C944B000C944B000C944B0011241FBECD
:10006000CFEFD4E0DEBFCDBF11E0A0E0B1E0EEE025
:10007000F6E002C005900D92AA31B107D9F723E04E
:10008000AAE1B1E001C01D92A134B207E1F70E94DC
:1000900092010C9405030C9400008FE08093E7001C
:1000A00087EB8093E50087E08093E60080EC809307
:1000B000E40008950F931F93CF93DF93663071058B
:1000C00008F04BC080538A3008F08AE0FB01F595B8
:1000D000E795E451FF4F60FF02C050EF01C05FE0C1
:1000E000A82FB0E0AA0FBB1FA050BF4FCD91DC914D
:1000F00061E070E0A0E0B0E0152F1095012F0666DA
:1001000004C0149635966F5F7F4FCE010A2E02C051
:10011000969587950A94E2F7482F4F7061307105E4
:1001200069F48081902F982380E1489F90011124E9
:10013000842F822B8523892B8083E3CF8081912F8D
:10014000982380E1489F90011124842F822B8523DE
:10015000892B808364307105A4F2DF91CF911F91C8
:100160000F9108958F929F92AF92BF92CF92DF929C
:10017000EF92FF924B015C0183E088169104A10489
:10018000B10494F1D501C40181709927AA27B078F0
:10019000BB2354F40197A109B1098E6F9F6FAF6F14
:1001A000BF6F0196A11DB11D892B8A2B8B2BF1F0FE
:1001B000C12CD12C76016894C1F80AC0C501B401E4
:1001C000A70196010E948302672B682B692B81F09F
:1001D0008FEFC81AD80AE80AF80A8C149D04AE04F6
:1001E000BF0461F781E005C081E003C080E001C089
:1001F00080E0FF90EF90DF90CF90BF90AF909F9006
:100200008F900895CF92DF92EF92FF920F931F93FA
:10021000CF93DF9300D0CDB7DEB76B017C018A01AD
:1002200050931F0140931E0124E630E040E050E06F
:100230000E9483022AE030E040E050E00E94830206
:10024000B80180E3820F0E945A001A8219828981C4
:100250009A81883E934054F489819A8101969A83C9
:10026000898389819A81883E9340B4F300911E016D
:1002700010911F010F5F1F4F10931F0100931E016C
:10028000C701B6012AE030E040E050E00E9483025E
:10029000862FB801805D0E945A000F900F90DF9169
:1002A000CF911F910F91FF90EF90DF90CF90089525
:1002B000EC01C12CD12C7601C394C701B6010E9478
:1002C000B200882329F0AE01C701B6010E940201E5
:1002D0008FEFC81AD80AE80AF80AEFCF1F920F92D8
:1002E0000FB60F9211242F933F934F935F936F9309
:1002F0007F938F939F93AF93BF93EF93FF930E944E
:100300006A02FF91EF91BF91AF919F918F917F9181
:100310006F915F914F913F912F910F900FBE0F9072
:100320001F9018950E944D0060E070E088E591E014
:100330000E94D50183E090E00E945801DC011596EF
:100340001C921E921497DB01ED91FC91119730974E
:1003500021F48D939C930895F90124813581211511
:100360003105D1F7958384830895CF93DF9300D02F
:10037000CDB7DEB79A8389838091160190911701DA
:1003800006960E94C402892B59F489819A81909320
:1003900017018093160161E070E006960E94E40266
:1003A0000F900F90DF91CF910895CF93DF9300D0FE
:1003B000CDB7DEB7F89420911A0130911B01232BA1
:1003C00069F52AEF31E0309392012093910127E6FD
:1003D00032E03093FF012093FE0124ED32E03093B0
:1003E0006C0220936B021092D9021092D8022D9ABF
:1003F00022E020936F002DE02093810026E831E079
:100400003093890020938800109285001092840018
:1004100021E030E030931B0120931A012091180154
:10042000309119013A832983232BA9F0E981FA81BC
:100430004481558150931901409318019183808321
:100440007383628315821482CF0106960E94C402D0
:10045000019749F501C0FFCF7894A0911601B091A2
:100460001701ED91FC91119712968D919C91139724
:100470000995F89468E171E0809116019091170157
:100480000E949E0180911C0190911D01009751F0E6
:10049000FC012481358130931D0120931C010E94B1
:1004A000B50101C0FFCFE981FA81369689819A8131
:1004B00087599F4F918B808B938B828B6CE171E07E
:1004C00089819A810E949E0178940F900F90DF910C
:1004D000CF9108956CE171E0809116019091170120
:1004E0000E949E0180911C0190911D01009751F086
:1004F000FC012481358130931D0120931C010E9451
:10050000B5010895FFCF052E97FB1EF400940E94BD
:100510009A0257FD07D00E94A20207FC03D04EF4B6
:100520000C949A0250954095309521953F4F4F4F2E
:100530005F4F089590958095709561957F4F8F4F8F
:100540009F4F0895A1E21A2EAA1BBB1BFD010DC0EF
:10055000AA1FBB1FEE1FFF1FA217B307E407F50773
:1005600020F0A21BB30BE40BF50B661F771F881F4F
:10057000991F1A9469F760957095809590959B01E5
:10058000AC01BD01CF010895DC012D923D924D9249
:100590005D926D927D928D929D92AD92BD92CD9223
:1005A000DD92ED92FD920D931D93CD93DD93FF911E
:1005B000EF918DB78D938EB78D938FB78D93ED930C
:1005C000FD93882799270994DC01CB01813091059F
:1005D000811D2D903D904D905D906D907D908D9002
:1005E0009D90AD90BD90CD90DD90ED90FD900D91E2
:1005F0001D91CD91DD91ED91FD910D90F894FEBF8F
:0E0600000FBEEDBFED91FD910994F894FFCF70
:10060E0051158020111E111B500B411B411F110152
:0A061E00511F511B000020018D0147
:00000001FF
